{
  "_format": "hh-sol-artifact-1",
  "contractName": "Trig",
  "sourceName": "contracts/aero/art/Trig.sol",
  "abi": [
    {
      "inputs": [
        {
          "internalType": "uint256",
          "name": "_angle",
          "type": "uint256"
        }
      ],
      "name": "cos",
      "outputs": [
        {
          "internalType": "int256",
          "name": "",
          "type": "int256"
        }
      ],
      "stateMutability": "pure",
      "type": "function"
    },
    {
      "inputs": [
        {
          "internalType": "int256",
          "name": "degrees",
          "type": "int256"
        }
      ],
      "name": "dcos",
      "outputs": [
        {
          "internalType": "int256",
          "name": "",
          "type": "int256"
        }
      ],
      "stateMutability": "pure",
      "type": "function"
    },
    {
      "inputs": [
        {
          "internalType": "int256",
          "name": "degrees",
          "type": "int256"
        }
      ],
      "name": "dsin",
      "outputs": [
        {
          "internalType": "int256",
          "name": "",
          "type": "int256"
        }
      ],
      "stateMutability": "pure",
      "type": "function"
    },
    {
      "inputs": [
        {
          "internalType": "uint256",
          "name": "_angle",
          "type": "uint256"
        }
      ],
      "name": "sin",
      "outputs": [
        {
          "internalType": "int256",
          "name": "",
          "type": "int256"
        }
      ],
      "stateMutability": "pure",
      "type": "function"
    }
  ],
  "bytecode": "0x6121ef610035600b8282823980515f1a60731461002957634e487b7160e01b5f525f60045260245ffd5b305f52607381538281f3fe7300000000000000000000000000000000000000003014608060405260043610610055575f3560e01c80633925b56d1461005957806348e5916b1461007e578063a58b00ba14610091578063cb5cc109146100a4575b5f80fd5b61006c610067366004611d01565b6100b7565b60405190815260200160405180910390f35b61006c61008c366004611d01565b610ea5565b61006c61009f366004611d01565b611c21565b61006c6100b2366004611d01565b611c3b565b5f8060405180612d0001604052805f815260200161442c8152602001618853815260200161cc7081526020016201107c81526020016201547481526020016201985081526020016201dc0d815260200162021fa581526020016202631281526020016202a65081526020016202e959815260200162032c28815260200162036eb781526020016203b10281526020016203f3038152602001620434b581526020016204761481526020016204b71981526020016204f7c08152602001620538048152602001620577e081526020016205b74f81526020016205f64b8152602001620634d18152602001620672da81526020016206b06381526020016206ed668152602001620729e08152602001620765ca81526020016207a12081526020016207dbde8152602001620815ff815260200162084f7f81526020016208885981526020016208c08881526020016208f809815260200162092ed78152602001620964ed815260200162099a4881526020016209cee48152602001620a02bb8152602001620a35cb8152602001620a680e8152602001620a99828152602001620aca238152602001620af9ec8152602001620b28da8152602001620b56e98152602001620b84168152602001620bb05c8152602001620bdbba8152602001620c062b8152602001620c2fac8152602001620c58398152602001620c7fd08152602001620ca66e8152602001620ccc0f8152602001620cf0b08152602001620d144f8152602001620d36e98152602001620d587c8152602001620d79048152602001620d987f8152602001620db6ea8152602001620dd4448152602001620df0898152602001620e0bb98152602001620e25d08152602001620e3ecc8152602001620e56ad8152602001620e6d6f8152602001620e83118152602001620e97918152602001620eaaee8152602001620ebd268152602001620ece388152602001620ede228152602001620eece48152602001620efa7b8152602001620f06e88152602001620f12288152602001620f1c3c8152602001620f25228152602001620f2cda8152602001620f33638152602001620f38bc8152602001620f3ce68152602001620f3fdf8152602001620f41a88152602001620f42408152602001620f41a88152602001620f3fdf8152602001620f3ce68152602001620f38bc8152602001620f33638152602001620f2cda8152602001620f25228152602001620f1c3c8152602001620f12288152602001620f06e88152602001620efa7b8152602001620eece48152602001620ede228152602001620ece388152602001620ebd268152602001620eaaee8152602001620e97918152602001620e83118152602001620e6d6f8152602001620e56ad8152602001620e3ecc8152602001620e25d08152602001620e0bb98152602001620df0898152602001620dd4448152602001620db6ea8152602001620d987f8152602001620d79048152602001620d587c8152602001620d36e98152602001620d144f8152602001620cf0b08152602001620ccc0f8152602001620ca66e8152602001620c7fd08152602001620c58398152602001620c2fac8152602001620c062b8152602001620bdbba8152602001620bb05c8152602001620b84168152602001620b56e98152602001620b28da8152602001620af9ec8152602001620aca238152602001620a99828152602001620a680e8152602001620a35cb8152602001620a02bb81526020016209cee4815260200162099a488152602001620964ed815260200162092ed781526020016208f80981526020016208c088815260200162088859815260200162084f7f8152602001620815ff81526020016207dbde81526020016207a1208152602001620765ca8152602001620729e081526020016206ed6681526020016206b0638152602001620672da8152602001620634d181526020016205f64b81526020016205b74f8152602001620577e081526020016205380481526020016204f7c081526020016204b7198152602001620476148152602001620434b581526020016203f30381526020016203b102815260200162036eb7815260200162032c2881526020016202e95981526020016202a650815260200162026312815260200162021fa581526020016201dc0d81526020016201985081526020016201547481526020016201107c815260200161cc708152602001618853815260200161442c81526020015f815260200161442b19815260200161885219815260200161cc6f1981526020016201107b198152602001620154731981526020016201984f1981526020016201dc0c19815260200162021fa4198152602001620263111981526020016202a64f1981526020016202e95819815260200162032c2719815260200162036eb61981526020016203b1011981526020016203f302198152602001620434b4198152602001620476131981526020016204b7181981526020016204f7bf19815260200162053803198152602001620577df1981526020016205b74e1981526020016205f64a198152602001620634d0198152602001620672d91981526020016206b0621981526020016206ed65198152602001620729df198152602001620765c91981526020016207a11f1981526020016207dbdd198152602001620815fe19815260200162084f7e198152602001620888581981526020016208c0871981526020016208f80819815260200162092ed6198152602001620964ec19815260200162099a471981526020016209cee3198152602001620a02ba198152602001620a35ca198152602001620a680d198152602001620a9981198152602001620aca22198152602001620af9eb198152602001620b28d9198152602001620b56e8198152602001620b8415198152602001620bb05b198152602001620bdbb9198152602001620c062a198152602001620c2fab198152602001620c5838198152602001620c7fcf198152602001620ca66d198152602001620ccc0e198152602001620cf0af198152602001620d144e198152602001620d36e8198152602001620d587b198152602001620d7903198152602001620d987e198152602001620db6e9198152602001620dd443198152602001620df088198152602001620e0bb8198152602001620e25cf198152602001620e3ecb198152602001620e56ac198152602001620e6d6e198152602001620e8310198152602001620e9790198152602001620eaaed198152602001620ebd25198152602001620ece37198152602001620ede21198152602001620eece3198152602001620efa7a198152602001620f06e7198152602001620f1227198152602001620f1c3b198152602001620f2521198152602001620f2cd9198152602001620f3362198152602001620f38bb198152602001620f3ce5198152602001620f3fde198152602001620f41a7198152602001620f423f198152602001620f41a7198152602001620f3fde198152602001620f3ce5198152602001620f38bb198152602001620f3362198152602001620f2cd9198152602001620f2521198152602001620f1c3b198152602001620f1227198152602001620f06e7198152602001620efa7a198152602001620eece3198152602001620ede21198152602001620ece37198152602001620ebd25198152602001620eaaed198152602001620e9790198152602001620e8310198152602001620e6d6e198152602001620e56ac198152602001620e3ecb198152602001620e25cf198152602001620e0bb8198152602001620df088198152602001620dd443198152602001620db6e9198152602001620d987e198152602001620d7903198152602001620d587b198152602001620d36e8198152602001620d144e198152602001620cf0af198152602001620ccc0e198152602001620ca66d198152602001620c7fcf198152602001620c5838198152602001620c2fab198152602001620c062a198152602001620bdbb9198152602001620bb05b198152602001620b8415198152602001620b56e8198152602001620b28d9198152602001620af9eb198152602001620aca22198152602001620a9981198152602001620a680d198152602001620a35ca198152602001620a02ba1981526020016209cee319815260200162099a47198152602001620964ec19815260200162092ed61981526020016208f8081981526020016208c0871981526020016208885819815260200162084f7e198152602001620815fe1981526020016207dbdd1981526020016207a11f198152602001620765c9198152602001620729df1981526020016206ed651981526020016206b062198152602001620672d9198152602001620634d01981526020016205f64a1981526020016205b74e198152602001620577df198152602001620538031981526020016204f7bf1981526020016204b71819815260200162047613198152602001620434b41981526020016203f3021981526020016203b10119815260200162036eb619815260200162032c271981526020016202e9581981526020016202a64f1981526020016202631119815260200162021fa41981526020016201dc0c1981526020016201984f198152602001620154731981526020016201107b19815260200161cc6f19815260200161885219815260200161442b1981525090505f1983605a610e1d9190611d2c565b1315610e595780610168610e3285605a611d2c565b610e3c9190611d53565b6101688110610e4d57610e4d611d72565b60200201519392505050565b80610168610e6885605a611d2c565b610e73905f19611d86565b610e7d9190611d53565b6101688110610e8e57610e8e611d72565b6020020151610e9e905f19611d86565b9392505050565b5f8060405180612d0001604052805f815260200161442c8152602001618853815260200161cc7081526020016201107c81526020016201547481526020016201985081526020016201dc0d815260200162021fa581526020016202631281526020016202a65081526020016202e959815260200162032c28815260200162036eb781526020016203b10281526020016203f3038152602001620434b581526020016204761481526020016204b71981526020016204f7c08152602001620538048152602001620577e081526020016205b74f81526020016205f64b8152602001620634d18152602001620672da81526020016206b06381526020016206ed668152602001620729e08152602001620765ca81526020016207a12081526020016207dbde8152602001620815ff815260200162084f7f81526020016208885981526020016208c08881526020016208f809815260200162092ed78152602001620964ed815260200162099a4881526020016209cee48152602001620a02bb8152602001620a35cb8152602001620a680e8152602001620a99828152602001620aca238152602001620af9ec8152602001620b28da8152602001620b56e98152602001620b84168152602001620bb05c8152602001620bdbba8152602001620c062b8152602001620c2fac8152602001620c58398152602001620c7fd08152602001620ca66e8152602001620ccc0f8152602001620cf0b08152602001620d144f8152602001620d36e98152602001620d587c8152602001620d79048152602001620d987f8152602001620db6ea8152602001620dd4448152602001620df0898152602001620e0bb98152602001620e25d08152602001620e3ecc8152602001620e56ad8152602001620e6d6f8152602001620e83118152602001620e97918152602001620eaaee8152602001620ebd268152602001620ece388152602001620ede228152602001620eece48152602001620efa7b8152602001620f06e88152602001620f12288152602001620f1c3c8152602001620f25228152602001620f2cda8152602001620f33638152602001620f38bc8152602001620f3ce68152602001620f3fdf8152602001620f41a88152602001620f42408152602001620f41a88152602001620f3fdf8152602001620f3ce68152602001620f38bc8152602001620f33638152602001620f2cda8152602001620f25228152602001620f1c3c8152602001620f12288152602001620f06e88152602001620efa7b8152602001620eece48152602001620ede228152602001620ece388152602001620ebd268152602001620eaaee8152602001620e97918152602001620e83118152602001620e6d6f8152602001620e56ad8152602001620e3ecc8152602001620e25d08152602001620e0bb98152602001620df0898152602001620dd4448152602001620db6ea8152602001620d987f8152602001620d79048152602001620d587c8152602001620d36e98152602001620d144f8152602001620cf0b08152602001620ccc0f8152602001620ca66e8152602001620c7fd08152602001620c58398152602001620c2fac8152602001620c062b8152602001620bdbba8152602001620bb05c8152602001620b84168152602001620b56e98152602001620b28da8152602001620af9ec8152602001620aca238152602001620a99828152602001620a680e8152602001620a35cb8152602001620a02bb81526020016209cee4815260200162099a488152602001620964ed815260200162092ed781526020016208f80981526020016208c088815260200162088859815260200162084f7f8152602001620815ff81526020016207dbde81526020016207a1208152602001620765ca8152602001620729e081526020016206ed6681526020016206b0638152602001620672da8152602001620634d181526020016205f64b81526020016205b74f8152602001620577e081526020016205380481526020016204f7c081526020016204b7198152602001620476148152602001620434b581526020016203f30381526020016203b102815260200162036eb7815260200162032c2881526020016202e95981526020016202a650815260200162026312815260200162021fa581526020016201dc0d81526020016201985081526020016201547481526020016201107c815260200161cc708152602001618853815260200161442c81526020015f815260200161442b19815260200161885219815260200161cc6f1981526020016201107b198152602001620154731981526020016201984f1981526020016201dc0c19815260200162021fa4198152602001620263111981526020016202a64f1981526020016202e95819815260200162032c2719815260200162036eb61981526020016203b1011981526020016203f302198152602001620434b4198152602001620476131981526020016204b7181981526020016204f7bf19815260200162053803198152602001620577df1981526020016205b74e1981526020016205f64a198152602001620634d0198152602001620672d91981526020016206b0621981526020016206ed65198152602001620729df198152602001620765c91981526020016207a11f1981526020016207dbdd198152602001620815fe19815260200162084f7e198152602001620888581981526020016208c0871981526020016208f80819815260200162092ed6198152602001620964ec19815260200162099a471981526020016209cee3198152602001620a02ba198152602001620a35ca198152602001620a680d198152602001620a9981198152602001620aca22198152602001620af9eb198152602001620b28d9198152602001620b56e8198152602001620b8415198152602001620bb05b198152602001620bdbb9198152602001620c062a198152602001620c2fab198152602001620c5838198152602001620c7fcf198152602001620ca66d198152602001620ccc0e198152602001620cf0af198152602001620d144e198152602001620d36e8198152602001620d587b198152602001620d7903198152602001620d987e198152602001620db6e9198152602001620dd443198152602001620df088198152602001620e0bb8198152602001620e25cf198152602001620e3ecb198152602001620e56ac198152602001620e6d6e198152602001620e8310198152602001620e9790198152602001620eaaed198152602001620ebd25198152602001620ece37198152602001620ede21198152602001620eece3198152602001620efa7a198152602001620f06e7198152602001620f1227198152602001620f1c3b198152602001620f2521198152602001620f2cd9198152602001620f3362198152602001620f38bb198152602001620f3ce5198152602001620f3fde198152602001620f41a7198152602001620f423f198152602001620f41a7198152602001620f3fde198152602001620f3ce5198152602001620f38bb198152602001620f3362198152602001620f2cd9198152602001620f2521198152602001620f1c3b198152602001620f1227198152602001620f06e7198152602001620efa7a198152602001620eece3198152602001620ede21198152602001620ece37198152602001620ebd25198152602001620eaaed198152602001620e9790198152602001620e8310198152602001620e6d6e198152602001620e56ac198152602001620e3ecb198152602001620e25cf198152602001620e0bb8198152602001620df088198152602001620dd443198152602001620db6e9198152602001620d987e198152602001620d7903198152602001620d587b198152602001620d36e8198152602001620d144e198152602001620cf0af198152602001620ccc0e198152602001620ca66d198152602001620c7fcf198152602001620c5838198152602001620c2fab198152602001620c062a198152602001620bdbb9198152602001620bb05b198152602001620b8415198152602001620b56e8198152602001620b28d9198152602001620af9eb198152602001620aca22198152602001620a9981198152602001620a680d198152602001620a35ca198152602001620a02ba1981526020016209cee319815260200162099a47198152602001620964ec19815260200162092ed61981526020016208f8081981526020016208c0871981526020016208885819815260200162084f7e198152602001620815fe1981526020016207dbdd1981526020016207a11f198152602001620765c9198152602001620729df1981526020016206ed651981526020016206b062198152602001620672d9198152602001620634d01981526020016205f64a1981526020016205b74e198152602001620577df198152602001620538031981526020016204f7bf1981526020016204b71819815260200162047613198152602001620434b41981526020016203f3021981526020016203b10119815260200162036eb619815260200162032c271981526020016202e9581981526020016202a64f1981526020016202631119815260200162021fa41981526020016201dc0c1981526020016201984f198152602001620154731981526020016201107b19815260200161cc6f19815260200161885219815260200161442b1981525090505f19831315611c125780610e3c61016885611d53565b80610168610e73855f19611d86565b5f611c356715cc96efd11924eb8301611c3b565b92915050565b6757325bbf446493ac90819006634000000002045f61ffff600483901c1660ff601484901c16631000000084161563200000008516151581611c7f5760ff92909203915b5f6040518061044001604052806104048152602001611db6610404913960046002860102818101519192509063ffffffff602082901c8116908216818103890260101c5f88611cd057818303611cd4565b8184015b90508715611cdf575f035b637fffffff670de0b6b3a76400008202059d9c50505050505050505050505050565b5f60208284031215611d11575f80fd5b5035919050565b634e487b7160e01b5f52601160045260245ffd5b8082018281125f831280158216821582161715611d4b57611d4b611d18565b505092915050565b5f82611d6d57634e487b7160e01b5f52601260045260245ffd5b500690565b634e487b7160e01b5f52603260045260245ffd5b8082025f8212600160ff1b84141615611da157611da1611d18565b8181058314821517611c3557611c35611d1856fe0000000000c90f8801921d20025b26d703242abf03ed26e604b6195d057f00350647d97c0710a34507d95b9e08a2009a096a90490a3308bc0afb68050bc3ac350c8bd35e0d53db920e1bc2e40ee387660fab272b1072a0481139f0cf120116d512c8106e138edbb1145576b1151bdf8515e2144416a81305176dd9de183366e818f8b83c19bdcbf31a82a0251b4732ef1c0b826a1ccf8cb31d934fe51e56ca1e1f19f97b1fdcdc1b209f701c2161b39f2223a4c522e541af23a6887e2467775725280c5d25e845b626a8218527679df42826b92828e5714a29a3c4852a61b1012b1f34eb2bdc4e6f2c98fbba2d553afb2e110a622ecc681e2f8752623041c76030fbc54d31b54a5d326e54c73326e2c233def2873496824f354d905636041ad936ba2013376f9e46382493b038d8fe93398cdd323a402dd13af2eeb73ba51e293c56ba703d07c1d53db832a53e680b2c3f1749b73fc5ec974073f21d4121589a41ce1e64427a41d04325c13543d09aec447acd50452456bc45cd358f46756827471cece647c3c22e4869e664490f57ee49b415334a581c9d4afb6c974b9e038f4c3fdff34ce100344d8162c34e2106174ebfe8a44f5e08e24ffb654c5097fc5e5133cc9451ced46e5269126e53028517539b2aef5433027d54ca0a4a556040e255f5a4d2568a34a9571deef957b0d2555842dd5458d40e8c5964649759f3de125a8279995b1035ce5b9d11535c290acc5cb420df5d3e52365dc79d7b5e50015d5ed77c895f5e0db25fe3b38d60686cce60ec382f616f146b61f1003e6271fa6862f201ac637114cc63ef328f646c59bf64e889256563bf9165ddfbd266573cbb66cf811f6746c7d767bd0fbc683257aa68a69e806919e31f698c246b69fd614a6a6d98a36adcc9646b4af2786bb812d06c24295f6c8f351b6cf934fb6d6227f96dca0d146e30e3496e96a99c6efb5f116f5f02b16fc1938470231099708378fe70e2cbc571410804719e2cd171fa394872552c8472af05a67307c3cf735f662573b5ebd0740b53fa745f9dd074b2c8837504d3447555bd4b75a585ce75f42c0a7641af3c768e0ea576d9498877235f2c776c4eda77b417df77fab988784033287884841378c7aba17909a92c794a7c11798a23b079c89f6d7a05eeac7a4210d87a7d055a7ab6cba37aef63237b26cb4e7b5d039d7b920b887bc5e28f7bf8882f7c29fbed7c5a3d4f7c894bdd7cb727237ce3ceb17d0f42177d3980eb7d628ac57d8a5f3f7db0fdf77dd6668e7dfa98a77e1d93e97e3f57fe7e5fe4927e7f39567e9d55fb7eba3a387ed5e5c57ef0585f7f0991c37f2191b37f3857f57f4de4507f62368e7f754e7f7f872bf27f97cebc7fa736b37fb563b27fc255957fce0c3d7fd8878d7fe1c76a7fe9cbbf7ff094777ff621817ffa72d07ffd88597fff62157fffffffa2646970667358221220074631377c6df9ab4e5a9dd529d1b31991c8567922992f04cb445b2bac043a4664736f6c63430008180033",
  "linkReferences": {},
  "deployedLinkReferences": {}
}