{
  "_format": "hh-sol-artifact-1",
  "contractName": "PoolFees",
  "sourceName": "contracts/aero/PoolFees.sol",
  "abi": [
    {
      "inputs": [
        {
          "internalType": "address",
          "name": "_token0",
          "type": "address"
        },
        {
          "internalType": "address",
          "name": "_token1",
          "type": "address"
        }
      ],
      "stateMutability": "nonpayable",
      "type": "constructor"
    },
    {
      "inputs": [],
      "name": "NotPool",
      "type": "error"
    },
    {
      "inputs": [
        {
          "internalType": "address",
          "name": "token",
          "type": "address"
        }
      ],
      "name": "SafeERC20FailedOperation",
      "type": "error"
    },
    {
      "inputs": [
        {
          "internalType": "address",
          "name": "_recipient",
          "type": "address"
        },
        {
          "internalType": "uint256",
          "name": "_amount0",
          "type": "uint256"
        },
        {
          "internalType": "uint256",
          "name": "_amount1",
          "type": "uint256"
        }
      ],
      "name": "claimFeesFor",
      "outputs": [],
      "stateMutability": "nonpayable",
      "type": "function"
    }
  ],
  "bytecode": "0x60e060405234801561000f575f80fd5b506040516102ce3803806102ce83398101604081905261002e91610064565b336080526001600160a01b0391821660a0521660c052610095565b80516001600160a01b038116811461005f575f80fd5b919050565b5f8060408385031215610075575f80fd5b61007e83610049565b915061008c60208401610049565b90509250929050565b60805160a05160c0516102126100bc5f395f60d801525f609e01525f604d01526102125ff3fe608060405234801561000f575f80fd5b5060043610610029575f3560e01c8063533cf5ce1461002d575b5f80fd5b61004061003b36600461019f565b610042565b005b336001600160a01b037f0000000000000000000000000000000000000000000000000000000000000000161461008b57604051636f61f64160e01b815260040160405180910390fd5b81156100c5576100c56001600160a01b037f0000000000000000000000000000000000000000000000000000000000000000168484610104565b80156100ff576100ff6001600160a01b037f0000000000000000000000000000000000000000000000000000000000000000168483610104565b505050565b610111838383600161013d565b6100ff57604051635274afe760e01b81526001600160a01b038416600482015260240160405180910390fd5b60405163a9059cbb60e01b5f8181526001600160a01b038616600452602485905291602083604481808b5af1925060015f51148316610193578383151615610187573d5f823e3d81fd5b5f873b113d1516831692505b60405250949350505050565b5f805f606084860312156101b1575f80fd5b83356001600160a01b03811681146101c7575f80fd5b9560208501359550604090940135939250505056fea2646970667358221220e40bd925c7f5c474afc21f34fd097771cd049499a843807d290898c4c1c575f164736f6c63430008180033",
  "linkReferences": {},
  "deployedLinkReferences": {}
}