{
  "_format": "hh-sol-artifact-1",
  "contractName": "PerlinNoise",
  "sourceName": "contracts/aero/art/PerlinNoise.sol",
  "abi": [
    {
      "inputs": [
        {
          "internalType": "int256",
          "name": "x",
          "type": "int256"
        },
        {
          "internalType": "int256",
          "name": "y",
          "type": "int256"
        }
      ],
      "name": "noise2d",
      "outputs": [
        {
          "internalType": "int256",
          "name": "",
          "type": "int256"
        }
      ],
      "stateMutability": "pure",
      "type": "function"
    },
    {
      "inputs": [
        {
          "internalType": "int256",
          "name": "x",
          "type": "int256"
        },
        {
          "internalType": "int256",
          "name": "y",
          "type": "int256"
        },
        {
          "internalType": "int256",
          "name": "z",
          "type": "int256"
        }
      ],
      "name": "noise3d",
      "outputs": [
        {
          "internalType": "int256",
          "name": "",
          "type": "int256"
        }
      ],
      "stateMutability": "pure",
      "type": "function"
    }
  ],
  "bytecode": "0x61293d610035600b8282823980515f1a60731461002957634e487b7160e01b5f525f60045260245ffd5b305f52607381538281f3fe730000000000000000000000000000000000000000301460806040526004361061003f575f3560e01c8063657d14d11461004357806370ab32b314610068575b5f80fd5b610056610051366004612814565b61007b565b60405190815260200160405180910390f35b61005661007636600461283d565b610328565b6040805160e08101825260ff601086811d8216835285811d8216602084015284901d16918101919091525f606082018190526080820181905260a0820181905260c0820181905261ffff9485169493841693909216919081806100e383826020020151610420565b90506101048360015b60200201516100ff90600884901d612871565b610420565b915061011f8360015b60200201516100ff9060ff8416612871565b905061013a83600260200201516100ff90600885901d612871565b60608401526040830151610155906100ff9060ff8516612871565b60808401526101658360026100ec565b60a084015261017583600261010d565b60c08401525f80806101868a61151a565b94506101918961151a565b93506101d8856101ae60088960036020020151901d8d8d8d611562565b6101d360088a60056020020151901d620100008f6101cc9190612898565b8e8e611562565b6115eb565b92506102348561020160088960046020020151901d8d6101fb620100008f612898565b8d611562565b6101d360088a60066020020151901d620100008f61021f9190612898565b620100008f61022e9190612898565b8e611562565b91506102418484846115eb565b905061029685610269886003602002015160ff168d8d610264620100008f612898565b611562565b6101d3896005602002015160ff16620100008f6102869190612898565b8e620100008f6102649190612898565b9250610300856102c5886004602002015160ff168d6102b8620100008f612898565b610264620100008f612898565b6101d3896006602002015160ff16620100008f6102e29190612898565b620100008f6102f19190612898565b620100008f6102649190612898565b915061031a61030e8961151a565b826101d38787876115eb565b9a9950505050505050505050565b5f8061033a601085901d60ff16610420565b90505f6103556100ff60ff601087901d16600885901d612871565b90505f61036f6100ff60ff601088901d8116908616612871565b905061ffff8616955061ffff851694505f6103898761151a565b90505f6103ba8261039f600887901d8b8b611615565b6101d3600887901d6103b4620100008e612898565b8c611615565b90505f6103fc836103db60ff88168c6103d6620100008e612898565b611615565b6101d360ff88166103ef620100008f612898565b6103d6620100008f612898565b905061041161040a8961151a565b83836115eb565b96505050505050505b92915050565b60ff165f607f8213610ca257603f821361086a57601f821361065357600f821361054b57600782136104cb576003821361048f576001821361047557815f0361046c57506197a0919050565b5061a089919050565b81600203610486575061895b919050565b50615b5a919050565b600582136104b157816004036104a85750615a0f919050565b50610f83919050565b816006036104c2575061830d919050565b50610dc9919050565b600b821361050f57600982136104f557816008036104ec575061c95f919050565b50615f60919050565b81600a036105065750616035919050565b506135c2919050565b600d82136105315781600c03610528575061c2e9919050565b5061e907919050565b81600e0361054257506107e1919050565b5061e18c919050565b601782136105d35760138213610597576011821361057d57816010036105745750618c24919050565b50612467919050565b8160120361058e575061671e919050565b50611e45919050565b601582136105b957816014036105b0575061458e919050565b50618e08919050565b816016036105ca5750610863919050565b50616325919050565b601b821361061757601982136105fd57816018036105f457506125f0919050565b5061f015919050565b81601a0361060e575061150a919050565b50610a17919050565b601d82136106395781601c0361063057506117be919050565b5061be06919050565b81601e0361064a5750610694919050565b506194f7919050565b602f821361076257602782136106e257602382136106a7576021821361068d5781602003610684575061f778919050565b506178ea919050565b8160220361069e575061ea4b919050565b50614b00919050565b602582136106c857816024036106bf5750601a919050565b50611ac5919050565b816026036106d9575061c53e919050565b50613e5e919050565b602b8213610726576029821361070c57816028036107035750615efc919050565b5061fcdb919050565b81602a0361071d575061dbcb919050565b5061cb75919050565b602d82136107485781602c0361073f5750617523919050565b5061230b919050565b81602e036107595750610b20919050565b50612039919050565b603782136107ea57603382136107ae5760318213610794578160300361078b57506139b1919050565b5061b121919050565b816032036107a55750612158919050565b506158ed919050565b603582136107d057816034036107c7575061ed95919050565b50619538919050565b816036036107e15750613857919050565b506157ae919050565b603b821361082e5760398213610814578160380361080b575061ae14919050565b5061147d919050565b81603a036108255750617d88919050565b506188ab919050565b603d82136108505781603c03610847575061aba8919050565b5061a844919050565b81603e0361086157506144af919050565b5061af4a919050565b605f8213610a8a57604f8213610982576047821361090257604382136108c657604182136108ac57816040036108a35750614aa5919050565b5061a547919050565b816042036108bd5750614786919050565b5061868b919050565b604582136108e857816044036108df5750618b30919050565b5061301b919050565b816046036108f95750611ba6919050565b5061a64d919050565b604b8213610946576049821361092c57816048036109235750614d92919050565b5061929e919050565b81604a0361093d5750619ee7919050565b5061e753919050565b604d82136109685781604c0361095f575061536f919050565b50616fe5919050565b81604e03610979575061e57a919050565b50617a3c919050565b60578213610a0a57605382136109ce57605182136109b457816050036109ab5750613cd3919050565b5061d385919050565b816052036109c557506185e6919050565b5061e6dc919050565b605582136109f057816054036109e7575061dc69919050565b5061695c919050565b81605603610a015750615c29919050565b50612937919050565b605b8213610a4e5760598213610a345781605803610a2b575061372e919050565b50612ef5919050565b81605a03610a45575061f528919050565b506128f4919050565b605d8213610a705781605c03610a67575061f466919050565b5061668f919050565b81605e03610a815750618f36919050565b50613641919050565b606f8213610b9a5760678213610b1a5760638213610ade5760618213610ac45781606003610abb5750614119919050565b5061193f919050565b81606203610ad55750613fa1919050565b5061a101919050565b60658213610b005781606403610af757506101d8919050565b5061d850919050565b81606603610b115750615049919050565b506149d1919050565b606b8213610b5e5760698213610b445781606803610b3b575061d14c919050565b50614c84919050565b81606a03610b5557506184bb919050565b5061bbd0919050565b606d8213610b805781606c03610b77575061d059919050565b50615912919050565b81606e03610b9157506112a9919050565b5061a9c8919050565b60778213610c225760738213610be65760718213610bcc5781607003610bc3575061c8c4919050565b5061c487919050565b81607203610bdd5750618782919050565b50618274919050565b60758213610c085781607403610bff57506174bc919050565b5061bc9f919050565b81607603610c195750619f56919050565b506156a4919050565b607b8213610c665760798213610c4c5781607803610c43575061a464919050565b5061646d919050565b81607a03610c5d5750616dc6919050565b5061c6ad919050565b607d8213610c885781607c03610c7f575061adba919050565b5061ba03919050565b81607e03610c995750610340919050565b50614034919050565b60bf82136110e257609f8213610eca57608f8213610dc25760878213610d425760838213610d065760818213610cec5781608003610ce357506134d9919050565b5061d9e2919050565b81608203610cfd575061e2fa919050565b5061fa7c919050565b60858213610d285781608403610d1f5750617c7b919050565b50617b05919050565b81608603610d3957506105ca919050565b5061ca26919050565b608b8213610d865760898213610d6c5781608803610d635750612693919050565b50619376919050565b81608a03610d7d575061767e919050565b50617eff919050565b608d8213610da85781608c03610d9f575061ff52919050565b50615255919050565b81608e03610db957506155d4919050565b5061d4cf919050565b60978213610e4a5760938213610e0e5760918213610df45781609003610deb575061cfce919050565b5061ce3b919050565b81609203610e055750613be3919050565b5061e32f919050565b60958213610e305781609403610e275750612f10919050565b5061103a919050565b81609603610e415750613a11919050565b506111b6919050565b609b8213610e8e5760998213610e745781609803610e6b575061b6bd919050565b5061bd1c919050565b81609a03610e855750611c2a919050565b50612adf919050565b609d8213610eb05781609c03610ea7575061dfb7919050565b5061b7aa919050565b81609e03610ec1575061aad5919050565b5061d577919050565b60af8213610fda5760a78213610f5a5760a38213610f1e5760a18213610f04578160a003610efb57506177f8919050565b5061f898919050565b8160a203610f155750619802919050565b5061022c919050565b60a58213610f40578160a403610f375750612c9a919050565b50619aa3919050565b8160a603610f51575061a346919050565b506146dd919050565b60ab8213610f9e5760a98213610f84578160a803610f7b575061dd99919050565b50619965919050565b8160aa03610f95575061659b919050565b50619ba7919050565b60ad8213610fc0578160ac03610fb7575061a72b919050565b50612bac919050565b8160ae03610fd1575061ac09919050565b50610981919050565b60b782136110625760b382136110265760b1821361100c578160b0036110035750618116919050565b50611627919050565b8160b20361101d57506127fd919050565b5061fd13919050565b60b58213611048578160b40361103f5750611362919050565b5061626c919050565b8160b6036110595750616c6e919050565b50616e4f919050565b60bb82136110a65760b9821361108c578160b8036110835750614f71919050565b506171e0919050565b8160ba0361109d575061e0e8919050565b5061e8b2919050565b60bd82136110c8578160bc036110bf575061b2b9919050565b5061b970919050565b8160be036110d95750617068919050565b506168da919050565b60df82136113025760cf82136111fa5760c7821361117a5760c3821361113e5760c18213611124578160c00361111b575061daf6919050565b5061f661919050565b8160c20361113557506161e4919050565b5061e4fb919050565b60c58213611160578160c403611157575061fb22919050565b506122f2919050565b8160c603611171575061f2c1919050565b5061c1ee919050565b60cb82136111be5760c982136111a4578160c80361119b575061eed2919050565b5061d290919050565b8160ca036111b5575061900c919050565b50610cbf919050565b60cd82136111e0578160cc036111d7575061bfb3919050565b5061b3a2919050565b8160ce036111f1575061a2f1919050565b5061f151919050565b60d782136112825760d382136112465760d1821361122c578160d0036112235750615133919050565b50613391919050565b8160d20361123d57506191eb919050565b5061ebf9919050565b60d58213611268578160d40361125f575061f90e919050565b50610eef919050565b8160d603611279575061ef6b919050565b50616b31919050565b60db82136112c65760d982136112ac578160d8036112a357506131c0919050565b5061c0d6919050565b8160da036112bd575061d61f919050565b50611fb5919050565b60dd82136112e8578160dc036112df575061b5c7919050565b5061c76a919050565b8160de036112f95750616a9d919050565b50619db8919050565b60ef82136114125760e782136113925760e382136113565760e1821361133c578160e003611333575061b854919050565b506154cc919050565b8160e20361134d575061ccb0919050565b5061b073919050565b60e58213611378578160e40361136f5750617379919050565b50617932919050565b8160e603611389575061322d919050565b50612d7f919050565b60eb82136113d65760e982136113bc578160e8036113b35750617f04919050565b50610496919050565b8160ea036113cd57506196fe919050565b5061fe8a919050565b60ed82136113f8578160ec036113ef5750618aec919050565b5061eccd919050565b8160ee03611409575061cd5d919050565b50615dde919050565b60f7821361149a5760f3821361145e5760f18213611444578160f00361143b575061de72919050565b50617243919050565b8160f203611455575061431d919050565b50611d18919050565b60f58213611480578160f4036114775750611848919050565b506148f3919050565b8160f603611491575061f38d919050565b50618d80919050565b60fb82136114de5760f982136114c4578160f8036114bb57506180c3919050565b5061c34e919050565b8160fa036114d55750614e42919050565b506142d7919050565b60fd8213611500578160fc036114f7575061d73d919050565b50613d9c919050565b8160fe036115115750619cb4919050565b5061b497919050565b5f80611529600884901d61166b565b9050600c81901d610fff821660086115418383612898565b61154e9060ff88166128be565b611559911d83612871565b95945050505050565b5f600f851694505f600886121561157a57508361157d565b50825b5f600487121561158e5750836115ac565b86600c148061159d575086600e145b156115a95750846115ac565b50825b60018716156115c1576115be826128ed565b91505b60028716156115d6576115d3816128ed565b90505b6115e08183612871565b979650505050505050565b5f600c6115f88484612898565b61160290866128be565b61160d911d84612871565b949350505050565b5f6003841693505f846001165f0361162e57508261163a565b611637846128ed565b90505b5f600286121561164b575082611657565b611654846128ed565b90505b6116618183612871565b9695505050505050565b5f607f8213611f3a57603f8213611ac257601f821361188a57600f821361177657600782136116f657600382136116c857600182136116b957815f036116b257505f919050565b505f919050565b816002036116b257505f919050565b600582136116df57816004036116b257505f919050565b816006036116ee57505f919050565b506001919050565b600b821361173a576009821361172057816008036117175750611001919050565b50611002919050565b81600a036117315750612003919050565b50613003919050565b600d821361175c5781600c036117535750613004919050565b50614006919050565b81600e0361176d5750616007919050565b50617009919050565b6017821361180257601382136117c257601182136117a8578160100361179f575061900a919050565b5061a00c919050565b816012036117b9575061c00e919050565b5061e011919050565b601582136117e657816014036117dc575062011013919050565b5062013016919050565b816016036117f8575062016019919050565b506201901d919050565b601b821361184a576019821361182e578160180361182457506201d020919050565b5062020024919050565b81601a03611840575062024028919050565b506202802d919050565b601d821361186e5781601c0361186457506202d031919050565b5062031036919050565b81601e0361188057506203603c919050565b506203c041919050565b602f82136119aa576027821361192257602382136118e257602182136118c657816020036118bc575062041047919050565b506204704d919050565b816022036118d857506204d054919050565b506205405b919050565b6025821361190657816024036118fc57506205b062919050565b5062062069919050565b81602603611918575062069071919050565b5062071079919050565b602b821361196a576029821361194e5781602803611944575062079082919050565b506208208b919050565b81602a0361196057506208b094919050565b506209409e919050565b602d821361198e5781602c0361198457506209e0a7919050565b50620a70b2919050565b81602e036119a05750620b20bc919050565b50620bc0c7919050565b60378213611a3a57603382136119fa57603182136119de57816030036119d45750620c70d3919050565b50620d30de919050565b816032036119f05750620de0ea919050565b50620ea0f7919050565b60358213611a1e5781603403611a145750620f7103919050565b5062103111919050565b81603603611a3057506211111e919050565b506211e12c919050565b603b8213611a825760398213611a665781603803611a5c57506212c13a919050565b506213a149919050565b81603a03611a78575062149158919050565b5062158167919050565b603d8213611aa65781603c03611a9c575062167176919050565b5062176186919050565b81603e03611ab8575062186197919050565b50621971a8919050565b605f8213611d0257604f8213611bea5760478213611b625760438213611b225760418213611b065781604003611afc5750621a81b9919050565b50621b91ca919050565b81604203611b185750621ca1dc919050565b50621dc1ee919050565b60458213611b465781604403611b3c5750621ee200919050565b5062200213919050565b81604603611b58575062213226919050565b506222623a919050565b604b8213611baa5760498213611b8e5781604803611b8457506223a24d919050565b506224d261919050565b81604a03611ba0575062261276919050565b506227628b919050565b604d8213611bce5781604c03611bc457506228b2a0919050565b50622a02b5919050565b81604e03611be05750622b52cb919050565b50622cb2e1919050565b60578213611c7a5760538213611c3a5760518213611c1e5781605003611c145750622e12f7919050565b50622f730e919050565b81605203611c3057506230e325919050565b506232533c919050565b60558213611c5e5781605403611c5457506233c353919050565b506235336b919050565b81605603611c7057506236b383919050565b506238339b919050565b605b8213611cc25760598213611ca65781605803611c9c57506239b3b4919050565b50623b43cd919050565b81605a03611cb85750623cd3e6919050565b50623e63ff919050565b605d8213611ce65781605c03611cdc5750623ff419919050565b5062419432919050565b81605e03611cf857506243244c919050565b506244c467919050565b606f8213611e225760678213611d9a5760638213611d5a5760618213611d3e5781606003611d34575062467481919050565b506248149c919050565b81606203611d5057506249c4b7919050565b50624b74d2919050565b60658213611d7e5781606403611d745750624d24ed919050565b50624ed509919050565b81606603611d90575062509524919050565b5062524540919050565b606b8213611de25760698213611dc65781606803611dbc57506254055c919050565b506255c578919050565b81606a03611dd8575062578595919050565b50625955b1919050565b606d8213611e065781606c03611dfc5750625b15ce919050565b50625ce5eb919050565b81606e03611e185750625eb607919050565b5062607624919050565b60778213611eb25760738213611e725760718213611e565781607003611e4c575062624642919050565b506264265f919050565b81607203611e6857506265f67c919050565b506267c69a919050565b60758213611e965781607403611e8c57506269a6b7919050565b50626b76d5919050565b81607603611ea85750626d56f2919050565b50626f2710919050565b607b8213611efa5760798213611ede5781607803611ed457506271072e919050565b506272e74c919050565b81607a03611ef057506274c76a919050565b506276a788919050565b607d8213611f1e5781607c03611f145750627887a6919050565b50627a67c4919050565b81607e03611f305750627c47e2919050565b50627e2800919050565b60bf82136123ba57609f821361218257608f821361206a5760878213611fe25760838213611fa25760818213611f865781608003611f7c57506280081d919050565b506281d83b919050565b81608203611f9857506283b859919050565b5062859877919050565b60858213611fc65781608403611fbc575062877895919050565b50628958b3919050565b81608603611fd85750628b38d1919050565b50628d18ef919050565b608b821361202a576089821361200e57816088036120045750628ef90d919050565b506290d92a919050565b81608a0361202057506292a948919050565b5062948965919050565b608d821361204e5781608c03612044575062965983919050565b50629839a0919050565b81608e036120605750629a09bd919050565b50629bd9db919050565b609782136120fa57609382136120ba576091821361209e57816090036120945750629db9f8919050565b50629f8a14919050565b816092036120b0575062a14a31919050565b5062a31a4e919050565b609582136120de57816094036120d4575062a4ea6a919050565b5062a6aa87919050565b816096036120f0575062a87aa3919050565b5062aa3abf919050565b609b82136121425760998213612126578160980361211c575062abfadb919050565b5062adbaf6919050565b81609a03612138575062af6b12919050565b5062b12b2d919050565b609d82136121665781609c0361215c575062b2db48919050565b5062b48b63919050565b81609e03612178575062b63b7e919050565b5062b7eb98919050565b60af82136122a25760a7821361221a5760a382136121da5760a182136121be578160a0036121b4575062b98bb3919050565b5062bb3bcd919050565b8160a2036121d0575062bcdbe6919050565b5062be6c00919050565b60a582136121fe578160a4036121f4575062c00c19919050565b5062c19c32919050565b8160a603612210575062c32c4b919050565b5062c4bc64919050565b60ab82136122625760a98213612246578160a80361223c575062c64c7c919050565b5062c7cc94919050565b8160aa03612258575062c94cac919050565b5062caccc3919050565b60ad8213612286578160ac0361227c575062cc3cda919050565b5062cdacf1919050565b8160ae03612298575062cf1d08919050565b5062d08d1e919050565b60b782136123325760b382136122f25760b182136122d6578160b0036122cc575062d1ed34919050565b5062d34d4a919050565b8160b2036122e8575062d4ad5f919050565b5062d5fd74919050565b60b58213612316578160b40361230c575062d74d89919050565b5062d89d9e919050565b8160b603612328575062d9edb2919050565b5062db2dc5919050565b60bb821361237a5760b9821361235e578160b803612354575062dc5dd9919050565b5062dd9dec919050565b8160ba03612370575062decdff919050565b5062dffe11919050565b60bd821361239e578160bc03612394575062e11e23919050565b5062e23e35919050565b8160be036123b0575062e35e46919050565b5062e46e58919050565b60df82136125fa5760cf82136124e25760c7821361245a5760c3821361241a5760c182136123fe578160c0036123f4575062e58e68919050565b5062e68e79919050565b8160c203612410575062e79e89919050565b5062e89e98919050565b60c5821361243e578160c403612434575062e98ea7919050565b5062ea7eb6919050565b8160c603612450575062eb6ec5919050565b5062ec5ed3919050565b60cb82136124a25760c98213612486578160c80361247c575062ed3ee1919050565b5062ee1eee919050565b8160ca03612498575062eeeefc919050565b5062efcf08919050565b60cd82136124c6578160cc036124bc575062f08f15919050565b5062f15f21919050565b8160ce036124d8575062f21f2c919050565b5062f2cf38919050565b60d782136125725760d382136125325760d18213612516578160d00361250c575062f38f43919050565b5062f43f4d919050565b8160d203612528575062f4df58919050565b5062f58f61919050565b60d58213612556578160d40361254c575062f61f6b919050565b5062f6bf74919050565b8160d603612568575062f74f7d919050565b5062f7df86919050565b60db82136125ba5760d9821361259e578160d803612594575062f86f8e919050565b5062f8ef96919050565b8160da036125b0575062f96f9d919050565b5062f9dfa4919050565b60dd82136125de578160dc036125d4575062fa4fab919050565b5062fabfb2919050565b8160de036125f0575062fb2fb8919050565b5062fb8fbe919050565b60ef821361271a5760e782136126925760e382136126525760e18213612636578160e00361262c575062fbefc3919050565b5062fc3fc9919050565b8160e203612648575062fc9fce919050565b5062fcefd2919050565b60e58213612676578160e40361266c575062fd2fd7919050565b5062fd7fdb919050565b8160e603612688575062fdbfdf919050565b5062fdffe2919050565b60eb82136126da5760e982136126be578160e8036126b4575062fe2fe6919050565b5062fe6fe9919050565b8160ea036126d0575062fe9fec919050565b5062fecfee919050565b60ed82136126fe578160ec036126f4575062feeff1919050565b5062ff1ff3919050565b8160ee03612710575062ff3ff5919050565b5062ff5ff6919050565b60f782136127aa5760f3821361276a5760f1821361274e578160f003612744575062ff6ff8919050565b5062ff8ff9919050565b8160f203612760575062ff9ffb919050565b5062ffbffc919050565b60f5821361278e578160f403612784575062ffcffc919050565b5062ffcffd919050565b8160f6036127a0575062ffdffe919050565b5062ffeffe919050565b60fb82136127e85760f982136127d6578160f8036127cc575062ffefff919050565b5062ffffff919050565b8160fa036127cc575062ffffff919050565b60fd8213612802578160fc036127cc575062ffffff919050565b8160fe036127cc575062ffffff919050565b5f805f60608486031215612826575f80fd5b505081359360208301359350604090920135919050565b5f806040838503121561284e575f80fd5b50508035926020909101359150565b634e487b7160e01b5f52601160045260245ffd5b8082018281125f8312801582168215821617156128905761289061285d565b505092915050565b8181035f8312801583831316838312821617156128b7576128b761285d565b5092915050565b8082025f8212600160ff1b841416156128d9576128d961285d565b818105831482151761041a5761041a61285d565b5f600160ff1b82016129015761290161285d565b505f039056fea2646970667358221220c17f348d06ceea4a858df95033094ba53e2f4bd7793cc4a2d9c1efa5f73bee2364736f6c63430008180033",
  "linkReferences": {},
  "deployedLinkReferences": {}
}