{
  "_format": "hh-sol-artifact-1",
  "contractName": "Router",
  "sourceName": "contracts/aero/Router.sol",
  "abi": [
    {
      "inputs": [
        {
          "internalType": "address",
          "name": "_factoryRegistry",
          "type": "address"
        },
        {
          "internalType": "address",
          "name": "_factory",
          "type": "address"
        },
        {
          "internalType": "address",
          "name": "_weth",
          "type": "address"
        }
      ],
      "stateMutability": "nonpayable",
      "type": "constructor"
    },
    {
      "inputs": [],
      "name": "ETHTransferFailed",
      "type": "error"
    },
    {
      "inputs": [],
      "name": "Expired",
      "type": "error"
    },
    {
      "inputs": [],
      "name": "InsufficientAmount",
      "type": "error"
    },
    {
      "inputs": [],
      "name": "InsufficientAmountA",
      "type": "error"
    },
    {
      "inputs": [],
      "name": "InsufficientAmountADesired",
      "type": "error"
    },
    {
      "inputs": [],
      "name": "InsufficientAmountB",
      "type": "error"
    },
    {
      "inputs": [],
      "name": "InsufficientAmountBDesired",
      "type": "error"
    },
    {
      "inputs": [],
      "name": "InsufficientLiquidity",
      "type": "error"
    },
    {
      "inputs": [],
      "name": "InsufficientOutputAmount",
      "type": "error"
    },
    {
      "inputs": [],
      "name": "InvalidPath",
      "type": "error"
    },
    {
      "inputs": [],
      "name": "OnlyWETH",
      "type": "error"
    },
    {
      "inputs": [
        {
          "internalType": "address",
          "name": "token",
          "type": "address"
        }
      ],
      "name": "SafeERC20FailedOperation",
      "type": "error"
    },
    {
      "inputs": [],
      "name": "SameAddresses",
      "type": "error"
    },
    {
      "inputs": [],
      "name": "ZeroAddress",
      "type": "error"
    },
    {
      "inputs": [],
      "name": "ETHER",
      "outputs": [
        {
          "internalType": "address",
          "name": "",
          "type": "address"
        }
      ],
      "stateMutability": "view",
      "type": "function"
    },
    {
      "inputs": [
        {
          "internalType": "uint256[]",
          "name": "amounts",
          "type": "uint256[]"
        },
        {
          "components": [
            {
              "internalType": "address",
              "name": "from",
              "type": "address"
            },
            {
              "internalType": "address",
              "name": "to",
              "type": "address"
            },
            {
              "internalType": "bool",
              "name": "stable",
              "type": "bool"
            },
            {
              "internalType": "address",
              "name": "factory",
              "type": "address"
            }
          ],
          "internalType": "struct Router.Route[]",
          "name": "routes",
          "type": "tuple[]"
        },
        {
          "internalType": "address",
          "name": "to",
          "type": "address"
        },
        {
          "internalType": "uint256",
          "name": "deadline",
          "type": "uint256"
        }
      ],
      "name": "UNSAFE_swapExactTokensForTokens",
      "outputs": [
        {
          "internalType": "uint256[]",
          "name": "",
          "type": "uint256[]"
        }
      ],
      "stateMutability": "nonpayable",
      "type": "function"
    },
    {
      "inputs": [
        {
          "internalType": "address",
          "name": "tokenA",
          "type": "address"
        },
        {
          "internalType": "address",
          "name": "tokenB",
          "type": "address"
        },
        {
          "internalType": "bool",
          "name": "stable",
          "type": "bool"
        },
        {
          "internalType": "uint256",
          "name": "amountADesired",
          "type": "uint256"
        },
        {
          "internalType": "uint256",
          "name": "amountBDesired",
          "type": "uint256"
        },
        {
          "internalType": "uint256",
          "name": "amountAMin",
          "type": "uint256"
        },
        {
          "internalType": "uint256",
          "name": "amountBMin",
          "type": "uint256"
        },
        {
          "internalType": "address",
          "name": "to",
          "type": "address"
        },
        {
          "internalType": "uint256",
          "name": "deadline",
          "type": "uint256"
        }
      ],
      "name": "addLiquidity",
      "outputs": [
        {
          "internalType": "uint256",
          "name": "amountA",
          "type": "uint256"
        },
        {
          "internalType": "uint256",
          "name": "amountB",
          "type": "uint256"
        },
        {
          "internalType": "uint256",
          "name": "liquidity",
          "type": "uint256"
        }
      ],
      "stateMutability": "nonpayable",
      "type": "function"
    },
    {
      "inputs": [
        {
          "internalType": "address",
          "name": "token",
          "type": "address"
        },
        {
          "internalType": "bool",
          "name": "stable",
          "type": "bool"
        },
        {
          "internalType": "uint256",
          "name": "amountTokenDesired",
          "type": "uint256"
        },
        {
          "internalType": "uint256",
          "name": "amountTokenMin",
          "type": "uint256"
        },
        {
          "internalType": "uint256",
          "name": "amountETHMin",
          "type": "uint256"
        },
        {
          "internalType": "address",
          "name": "to",
          "type": "address"
        },
        {
          "internalType": "uint256",
          "name": "deadline",
          "type": "uint256"
        }
      ],
      "name": "addLiquidityETH",
      "outputs": [
        {
          "internalType": "uint256",
          "name": "amountToken",
          "type": "uint256"
        },
        {
          "internalType": "uint256",
          "name": "amountETH",
          "type": "uint256"
        },
        {
          "internalType": "uint256",
          "name": "liquidity",
          "type": "uint256"
        }
      ],
      "stateMutability": "payable",
      "type": "function"
    },
    {
      "inputs": [],
      "name": "defaultFactory",
      "outputs": [
        {
          "internalType": "address",
          "name": "",
          "type": "address"
        }
      ],
      "stateMutability": "view",
      "type": "function"
    },
    {
      "inputs": [],
      "name": "factoryRegistry",
      "outputs": [
        {
          "internalType": "address",
          "name": "",
          "type": "address"
        }
      ],
      "stateMutability": "view",
      "type": "function"
    },
    {
      "inputs": [
        {
          "internalType": "uint256",
          "name": "amountIn",
          "type": "uint256"
        },
        {
          "components": [
            {
              "internalType": "address",
              "name": "from",
              "type": "address"
            },
            {
              "internalType": "address",
              "name": "to",
              "type": "address"
            },
            {
              "internalType": "bool",
              "name": "stable",
              "type": "bool"
            },
            {
              "internalType": "address",
              "name": "factory",
              "type": "address"
            }
          ],
          "internalType": "struct Router.Route[]",
          "name": "routes",
          "type": "tuple[]"
        }
      ],
      "name": "getAmountsOut",
      "outputs": [
        {
          "internalType": "uint256[]",
          "name": "amounts",
          "type": "uint256[]"
        }
      ],
      "stateMutability": "view",
      "type": "function"
    },
    {
      "inputs": [
        {
          "internalType": "address",
          "name": "tokenA",
          "type": "address"
        },
        {
          "internalType": "address",
          "name": "tokenB",
          "type": "address"
        },
        {
          "internalType": "bool",
          "name": "stable",
          "type": "bool"
        },
        {
          "internalType": "address",
          "name": "_factory",
          "type": "address"
        }
      ],
      "name": "getReserves",
      "outputs": [
        {
          "internalType": "uint256",
          "name": "reserveA",
          "type": "uint256"
        },
        {
          "internalType": "uint256",
          "name": "reserveB",
          "type": "uint256"
        }
      ],
      "stateMutability": "view",
      "type": "function"
    },
    {
      "inputs": [
        {
          "internalType": "address",
          "name": "tokenA",
          "type": "address"
        },
        {
          "internalType": "address",
          "name": "tokenB",
          "type": "address"
        },
        {
          "internalType": "bool",
          "name": "stable",
          "type": "bool"
        },
        {
          "internalType": "address",
          "name": "_factory",
          "type": "address"
        }
      ],
      "name": "poolFor",
      "outputs": [
        {
          "internalType": "address",
          "name": "pool",
          "type": "address"
        }
      ],
      "stateMutability": "view",
      "type": "function"
    },
    {
      "inputs": [
        {
          "internalType": "address",
          "name": "tokenA",
          "type": "address"
        },
        {
          "internalType": "address",
          "name": "tokenB",
          "type": "address"
        },
        {
          "internalType": "bool",
          "name": "stable",
          "type": "bool"
        },
        {
          "internalType": "address",
          "name": "_factory",
          "type": "address"
        },
        {
          "internalType": "uint256",
          "name": "amountADesired",
          "type": "uint256"
        },
        {
          "internalType": "uint256",
          "name": "amountBDesired",
          "type": "uint256"
        }
      ],
      "name": "quoteAddLiquidity",
      "outputs": [
        {
          "internalType": "uint256",
          "name": "amountA",
          "type": "uint256"
        },
        {
          "internalType": "uint256",
          "name": "amountB",
          "type": "uint256"
        },
        {
          "internalType": "uint256",
          "name": "liquidity",
          "type": "uint256"
        }
      ],
      "stateMutability": "view",
      "type": "function"
    },
    {
      "inputs": [
        {
          "internalType": "address",
          "name": "tokenA",
          "type": "address"
        },
        {
          "internalType": "address",
          "name": "tokenB",
          "type": "address"
        },
        {
          "internalType": "bool",
          "name": "stable",
          "type": "bool"
        },
        {
          "internalType": "address",
          "name": "_factory",
          "type": "address"
        },
        {
          "internalType": "uint256",
          "name": "liquidity",
          "type": "uint256"
        }
      ],
      "name": "quoteRemoveLiquidity",
      "outputs": [
        {
          "internalType": "uint256",
          "name": "amountA",
          "type": "uint256"
        },
        {
          "internalType": "uint256",
          "name": "amountB",
          "type": "uint256"
        }
      ],
      "stateMutability": "view",
      "type": "function"
    },
    {
      "inputs": [
        {
          "internalType": "address",
          "name": "tokenA",
          "type": "address"
        },
        {
          "internalType": "address",
          "name": "tokenB",
          "type": "address"
        },
        {
          "internalType": "address",
          "name": "_factory",
          "type": "address"
        }
      ],
      "name": "quoteStableLiquidityRatio",
      "outputs": [
        {
          "internalType": "uint256",
          "name": "ratio",
          "type": "uint256"
        }
      ],
      "stateMutability": "view",
      "type": "function"
    },
    {
      "inputs": [
        {
          "internalType": "address",
          "name": "tokenA",
          "type": "address"
        },
        {
          "internalType": "address",
          "name": "tokenB",
          "type": "address"
        },
        {
          "internalType": "bool",
          "name": "stable",
          "type": "bool"
        },
        {
          "internalType": "uint256",
          "name": "liquidity",
          "type": "uint256"
        },
        {
          "internalType": "uint256",
          "name": "amountAMin",
          "type": "uint256"
        },
        {
          "internalType": "uint256",
          "name": "amountBMin",
          "type": "uint256"
        },
        {
          "internalType": "address",
          "name": "to",
          "type": "address"
        },
        {
          "internalType": "uint256",
          "name": "deadline",
          "type": "uint256"
        }
      ],
      "name": "removeLiquidity",
      "outputs": [
        {
          "internalType": "uint256",
          "name": "amountA",
          "type": "uint256"
        },
        {
          "internalType": "uint256",
          "name": "amountB",
          "type": "uint256"
        }
      ],
      "stateMutability": "nonpayable",
      "type": "function"
    },
    {
      "inputs": [
        {
          "internalType": "address",
          "name": "token",
          "type": "address"
        },
        {
          "internalType": "bool",
          "name": "stable",
          "type": "bool"
        },
        {
          "internalType": "uint256",
          "name": "liquidity",
          "type": "uint256"
        },
        {
          "internalType": "uint256",
          "name": "amountTokenMin",
          "type": "uint256"
        },
        {
          "internalType": "uint256",
          "name": "amountETHMin",
          "type": "uint256"
        },
        {
          "internalType": "address",
          "name": "to",
          "type": "address"
        },
        {
          "internalType": "uint256",
          "name": "deadline",
          "type": "uint256"
        }
      ],
      "name": "removeLiquidityETH",
      "outputs": [
        {
          "internalType": "uint256",
          "name": "amountToken",
          "type": "uint256"
        },
        {
          "internalType": "uint256",
          "name": "amountETH",
          "type": "uint256"
        }
      ],
      "stateMutability": "nonpayable",
      "type": "function"
    },
    {
      "inputs": [
        {
          "internalType": "address",
          "name": "token",
          "type": "address"
        },
        {
          "internalType": "bool",
          "name": "stable",
          "type": "bool"
        },
        {
          "internalType": "uint256",
          "name": "liquidity",
          "type": "uint256"
        },
        {
          "internalType": "uint256",
          "name": "amountTokenMin",
          "type": "uint256"
        },
        {
          "internalType": "uint256",
          "name": "amountETHMin",
          "type": "uint256"
        },
        {
          "internalType": "address",
          "name": "to",
          "type": "address"
        },
        {
          "internalType": "uint256",
          "name": "deadline",
          "type": "uint256"
        }
      ],
      "name": "removeLiquidityETHSupportingFeeOnTransferTokens",
      "outputs": [
        {
          "internalType": "uint256",
          "name": "amountETH",
          "type": "uint256"
        }
      ],
      "stateMutability": "nonpayable",
      "type": "function"
    },
    {
      "inputs": [
        {
          "internalType": "address",
          "name": "tokenA",
          "type": "address"
        },
        {
          "internalType": "address",
          "name": "tokenB",
          "type": "address"
        }
      ],
      "name": "sortTokens",
      "outputs": [
        {
          "internalType": "address",
          "name": "token0",
          "type": "address"
        },
        {
          "internalType": "address",
          "name": "token1",
          "type": "address"
        }
      ],
      "stateMutability": "pure",
      "type": "function"
    },
    {
      "inputs": [
        {
          "internalType": "uint256",
          "name": "amountOutMin",
          "type": "uint256"
        },
        {
          "components": [
            {
              "internalType": "address",
              "name": "from",
              "type": "address"
            },
            {
              "internalType": "address",
              "name": "to",
              "type": "address"
            },
            {
              "internalType": "bool",
              "name": "stable",
              "type": "bool"
            },
            {
              "internalType": "address",
              "name": "factory",
              "type": "address"
            }
          ],
          "internalType": "struct Router.Route[]",
          "name": "routes",
          "type": "tuple[]"
        },
        {
          "internalType": "address",
          "name": "to",
          "type": "address"
        },
        {
          "internalType": "uint256",
          "name": "deadline",
          "type": "uint256"
        }
      ],
      "name": "swapExactETHForTokens",
      "outputs": [
        {
          "internalType": "uint256[]",
          "name": "amounts",
          "type": "uint256[]"
        }
      ],
      "stateMutability": "payable",
      "type": "function"
    },
    {
      "inputs": [
        {
          "internalType": "uint256",
          "name": "amountOutMin",
          "type": "uint256"
        },
        {
          "components": [
            {
              "internalType": "address",
              "name": "from",
              "type": "address"
            },
            {
              "internalType": "address",
              "name": "to",
              "type": "address"
            },
            {
              "internalType": "bool",
              "name": "stable",
              "type": "bool"
            },
            {
              "internalType": "address",
              "name": "factory",
              "type": "address"
            }
          ],
          "internalType": "struct Router.Route[]",
          "name": "routes",
          "type": "tuple[]"
        },
        {
          "internalType": "address",
          "name": "to",
          "type": "address"
        },
        {
          "internalType": "uint256",
          "name": "deadline",
          "type": "uint256"
        }
      ],
      "name": "swapExactETHForTokensSupportingFeeOnTransferTokens",
      "outputs": [],
      "stateMutability": "payable",
      "type": "function"
    },
    {
      "inputs": [
        {
          "internalType": "uint256",
          "name": "amountIn",
          "type": "uint256"
        },
        {
          "internalType": "uint256",
          "name": "amountOutMin",
          "type": "uint256"
        },
        {
          "components": [
            {
              "internalType": "address",
              "name": "from",
              "type": "address"
            },
            {
              "internalType": "address",
              "name": "to",
              "type": "address"
            },
            {
              "internalType": "bool",
              "name": "stable",
              "type": "bool"
            },
            {
              "internalType": "address",
              "name": "factory",
              "type": "address"
            }
          ],
          "internalType": "struct Router.Route[]",
          "name": "routes",
          "type": "tuple[]"
        },
        {
          "internalType": "address",
          "name": "to",
          "type": "address"
        },
        {
          "internalType": "uint256",
          "name": "deadline",
          "type": "uint256"
        }
      ],
      "name": "swapExactTokensForETH",
      "outputs": [
        {
          "internalType": "uint256[]",
          "name": "amounts",
          "type": "uint256[]"
        }
      ],
      "stateMutability": "nonpayable",
      "type": "function"
    },
    {
      "inputs": [
        {
          "internalType": "uint256",
          "name": "amountIn",
          "type": "uint256"
        },
        {
          "internalType": "uint256",
          "name": "amountOutMin",
          "type": "uint256"
        },
        {
          "components": [
            {
              "internalType": "address",
              "name": "from",
              "type": "address"
            },
            {
              "internalType": "address",
              "name": "to",
              "type": "address"
            },
            {
              "internalType": "bool",
              "name": "stable",
              "type": "bool"
            },
            {
              "internalType": "address",
              "name": "factory",
              "type": "address"
            }
          ],
          "internalType": "struct Router.Route[]",
          "name": "routes",
          "type": "tuple[]"
        },
        {
          "internalType": "address",
          "name": "to",
          "type": "address"
        },
        {
          "internalType": "uint256",
          "name": "deadline",
          "type": "uint256"
        }
      ],
      "name": "swapExactTokensForETHSupportingFeeOnTransferTokens",
      "outputs": [],
      "stateMutability": "nonpayable",
      "type": "function"
    },
    {
      "inputs": [
        {
          "internalType": "uint256",
          "name": "amountIn",
          "type": "uint256"
        },
        {
          "internalType": "uint256",
          "name": "amountOutMin",
          "type": "uint256"
        },
        {
          "components": [
            {
              "internalType": "address",
              "name": "from",
              "type": "address"
            },
            {
              "internalType": "address",
              "name": "to",
              "type": "address"
            },
            {
              "internalType": "bool",
              "name": "stable",
              "type": "bool"
            },
            {
              "internalType": "address",
              "name": "factory",
              "type": "address"
            }
          ],
          "internalType": "struct Router.Route[]",
          "name": "routes",
          "type": "tuple[]"
        },
        {
          "internalType": "address",
          "name": "to",
          "type": "address"
        },
        {
          "internalType": "uint256",
          "name": "deadline",
          "type": "uint256"
        }
      ],
      "name": "swapExactTokensForTokens",
      "outputs": [
        {
          "internalType": "uint256[]",
          "name": "amounts",
          "type": "uint256[]"
        }
      ],
      "stateMutability": "nonpayable",
      "type": "function"
    },
    {
      "inputs": [
        {
          "internalType": "uint256",
          "name": "amountIn",
          "type": "uint256"
        },
        {
          "internalType": "uint256",
          "name": "amountOutMin",
          "type": "uint256"
        },
        {
          "components": [
            {
              "internalType": "address",
              "name": "from",
              "type": "address"
            },
            {
              "internalType": "address",
              "name": "to",
              "type": "address"
            },
            {
              "internalType": "bool",
              "name": "stable",
              "type": "bool"
            },
            {
              "internalType": "address",
              "name": "factory",
              "type": "address"
            }
          ],
          "internalType": "struct Router.Route[]",
          "name": "routes",
          "type": "tuple[]"
        },
        {
          "internalType": "address",
          "name": "to",
          "type": "address"
        },
        {
          "internalType": "uint256",
          "name": "deadline",
          "type": "uint256"
        }
      ],
      "name": "swapExactTokensForTokensSupportingFeeOnTransferTokens",
      "outputs": [],
      "stateMutability": "nonpayable",
      "type": "function"
    },
    {
      "inputs": [],
      "name": "weth",
      "outputs": [
        {
          "internalType": "contract IWETH",
          "name": "",
          "type": "address"
        }
      ],
      "stateMutability": "view",
      "type": "function"
    },
    {
      "stateMutability": "payable",
      "type": "receive"
    }
  ],
  "bytecode": "0x60e060405234801562000010575f80fd5b506040516200405e3803806200405e83398101604081905262000033916200006d565b6001600160a01b0392831660805290821660a0521660c052620000b4565b80516001600160a01b038116811462000068575f80fd5b919050565b5f805f6060848603121562000080575f80fd5b6200008b8462000051565b92506200009b6020850162000051565b9150620000ab6040850162000051565b90509250925092565b60805160a05160c051613ebb620001a35f395f818161014f0152818161025a015281816106620152818161082a015281816108d401528181610953015281816109d001528181610a400152818161161801528181611735015281816117be015281816118fb015281816119300152818161198601528181611a1701528181611b3c01528181611d02015281816122130152818161226301528181612553015261260a01525f81816104770152818161051901528181610f9f015281816111ae0152818161126b0152818161195201528181612f1101528181612fb0015261303601525f6101fc0152613ebb5ff3fe60806040526004361061013f575f3560e01c806388cd821e116100b3578063cac88ea91161006d578063cac88ea914610428578063ce700c2914610447578063d4b6846d14610466578063d7b0e0a514610499578063f5ba53c7146104b8578063fe411f14146104e5575f80fd5b806388cd821e146103865780638c0037dc146103a5578063903638a4146103c4578063b7e0d4c0146103d7578063c6b7f1b6146103ea578063c92de3ec14610409575f80fd5b80634111d597116101045780634111d5971461027c57806342cb1fbc146102a8578063544caa56146102cf5780635509a1ac1461030e5780635a47ddc31461032d578063874029d914610367575f80fd5b80630dede6c41461019357806312bc3aca146101cc5780633bf0c9fb146101eb5780633da5acba146102365780633fc8cef314610249575f80fd5b3661018f57336001600160a01b037f0000000000000000000000000000000000000000000000000000000000000000161461018d576040516301f180c960e01b815260040160405180910390fd5b005b5f80fd5b34801561019e575f80fd5b506101b26101ad366004613463565b610504565b604080519283526020830191909152015b60405180910390f35b3480156101d7575f80fd5b5061018d6101e6366004613524565b61064e565b3480156101f6575f80fd5b5061021e7f000000000000000000000000000000000000000000000000000000000000000081565b6040516001600160a01b0390911681526020016101c3565b61018d610244366004613592565b610947565b348015610254575f80fd5b5061021e7f000000000000000000000000000000000000000000000000000000000000000081565b348015610287575f80fd5b5061029b61029636600461365c565b610cc7565b6040516101c39190613720565b3480156102b3575f80fd5b5061021e73eeeeeeeeeeeeeeeeeeeeeeeeeeeeeeeeeeeeeeee81565b3480156102da575f80fd5b506102ee6102e9366004613763565b610e19565b604080516001600160a01b039384168152929091166020830152016101c3565b348015610319575f80fd5b5061029b610328366004613821565b610ea3565b348015610338575f80fd5b5061034c6103473660046138c9565b611184565b604080519384526020840192909252908201526060016101c3565b348015610372575f80fd5b5061021e610381366004613952565b611268565b348015610391575f80fd5b5061018d6103a0366004613524565b6113da565b3480156103b0575f80fd5b506101b26103bf366004613952565b611555565b61029b6103d2366004613592565b61160a565b61034c6103e53660046139ab565b6118e8565b3480156103f5575f80fd5b5061029b610404366004613524565b611b26565b348015610414575f80fd5b506101b2610423366004613a18565b611ddc565b348015610433575f80fd5b5061029b610442366004613524565b611f1c565b348015610452575f80fd5b5061034c610461366004613a78565b612028565b348015610471575f80fd5b5061021e7f000000000000000000000000000000000000000000000000000000000000000081565b3480156104a4575f80fd5b506101b26104b33660046139ab565b612201565b3480156104c3575f80fd5b506104d76104d2366004613ae2565b6122d9565b6040519081526020016101c3565b3480156104f0575f80fd5b506104d76104ff3660046139ab565b612542565b5f80826105108161267f565b5f61053d8c8c8c7f0000000000000000000000000000000000000000000000000000000000000000611268565b90506105546001600160a01b03821633838c6126a3565b60405163226bf2d160e21b81526001600160a01b0387811660048301525f9182918416906389afcb449060240160408051808303815f875af115801561059c573d5f803e3d5ffd5b505050506040513d601f19601f820116820180604052508101906105c09190613b2a565b915091505f6105cf8f8f610e19565b509050806001600160a01b03168f6001600160a01b0316146105f25781836105f5565b82825b90975095508a87101561061b576040516323d9bb0560e21b815260040160405180910390fd5b8986101561063c57604051630d32418960e21b815260040160405180910390fd5b50505050509850989650505050505050565b806106588161267f565b6001600160a01b037f000000000000000000000000000000000000000000000000000000000000000016858561068f600182613b60565b81811061069e5761069e613b73565b90506080020160200160208101906106b69190613b87565b6001600160a01b0316146106dd576040516320db826760e01b815260040160405180910390fd5b6107b885855f8181106106f2576106f2613b73565b6107089260206080909202019081019150613b87565b336107b288885f81811061071e5761071e613b73565b6107349260206080909202019081019150613b87565b89895f81811061074657610746613b73565b905060800201602001602081019061075e9190613b87565b8a8a5f81811061077057610770613b73565b90506080020160400160208101906107889190613ba9565b8b8b5f81811061079a5761079a613b73565b90506080020160600160208101906103819190613b87565b8a6126e3565b6108138585808060200260200160405190810160405280939291908181526020015f905b82821015610808576107f960808302860136819003810190613bc4565b815260200190600101906107dc565b5050505050306127d3565b6040516370a0823160e01b81523060048201525f907f00000000000000000000000000000000000000000000000000000000000000006001600160a01b0316906370a0823190602401602060405180830381865afa158015610877573d5f803e3d5ffd5b505050506040513d601f19601f8201168201806040525081019061089b9190613bde565b9050868110156108be576040516342301c2360e01b815260040160405180910390fd5b604051632e1a7d4d60e01b8152600481018290527f00000000000000000000000000000000000000000000000000000000000000006001600160a01b031690632e1a7d4d906024015f604051808303815f87803b15801561091d575f80fd5b505af115801561092f573d5f803e3d5ffd5b5050505061093d8482612bdc565b5050505050505050565b806109518161267f565b7f00000000000000000000000000000000000000000000000000000000000000006001600160a01b031685855f81811061098d5761098d613b73565b6109a39260206080909202019081019150613b87565b6001600160a01b0316146109ca576040516320db826760e01b815260040160405180910390fd5b5f3490507f00000000000000000000000000000000000000000000000000000000000000006001600160a01b031663d0e30db0826040518263ffffffff1660e01b81526004015f604051808303818588803b158015610a27575f80fd5b505af1158015610a39573d5f803e3d5ffd5b50505050507f00000000000000000000000000000000000000000000000000000000000000006001600160a01b031663a9059cbb610a8288885f81811061071e5761071e613b73565b6040516001600160e01b031960e084901b1681526001600160a01b039091166004820152602481018490526044016020604051808303815f875af1158015610acc573d5f803e3d5ffd5b505050506040513d601f19601f82011682018060405250810190610af09190613bf5565b610afc57610afc613c10565b5f610b08600187613b60565b90505f878783818110610b1d57610b1d613b73565b9050608002016020016020810190610b359190613b87565b6040516370a0823160e01b81526001600160a01b03888116600483015291909116906370a0823190602401602060405180830381865afa158015610b7b573d5f803e3d5ffd5b505050506040513d601f19601f82011682018060405250810190610b9f9190613bde565b9050610bfc8888808060200260200160405190810160405280939291908181526020015f905b82821015610bf157610be260808302860136819003810190613bc4565b81526020019060010190610bc5565b5050505050876127d3565b8881898985818110610c1057610c10613b73565b9050608002016020016020810190610c289190613b87565b6040516370a0823160e01b81526001600160a01b038a8116600483015291909116906370a08231906024015b602060405180830381865afa158015610c6f573d5f803e3d5ffd5b505050506040513d601f19601f82011682018060405250810190610c939190613bde565b610c9d9190613b60565b1015610cbc576040516342301c2360e01b815260040160405180910390fd5b505050505050505050565b606081610cd38161267f565b610daf86865f818110610ce857610ce8613b73565b610cfe9260206080909202019081019150613b87565b33610d9089895f818110610d1457610d14613b73565b610d2a9260206080909202019081019150613b87565b8a8a5f818110610d3c57610d3c613b73565b9050608002016020016020810190610d549190613b87565b8b8b5f818110610d6657610d66613b73565b9050608002016040016020810190610d7e9190613ba9565b8c8c5f81811061079a5761079a613b73565b8a5f81518110610da257610da2613b73565b60200260200101516126e3565b610e0b878787808060200260200160405190810160405280939291908181526020015f905b82821015610e0057610df160808302860136819003810190613bc4565b81526020019060010190610dd4565b505050505086612c6b565b8691505b5095945050505050565b5f80826001600160a01b0316846001600160a01b031603610e4d57604051633295f3fd60e21b815260040160405180910390fd5b826001600160a01b0316846001600160a01b031610610e6d578284610e70565b83835b90925090506001600160a01b038216610e9c5760405163d92e233d60e01b815260040160405180910390fd5b9250929050565b6060600182511015610ec8576040516320db826760e01b815260040160405180910390fd5b8151610ed5906001613c24565b67ffffffffffffffff811115610eed57610eed6135f4565b604051908082528060200260200182016040528015610f16578160200160208202803683370190505b50905082815f81518110610f2c57610f2c613b73565b602090810291909101015281515f5b8181101561117c575f806001600160a01b0316858381518110610f6057610f60613b73565b6020026020010151606001516001600160a01b031614610f9d57848281518110610f8c57610f8c613b73565b602002602001015160600151610fbf565b7f00000000000000000000000000000000000000000000000000000000000000005b90505f611024868481518110610fd757610fd7613b73565b60200260200101515f0151878581518110610ff457610ff4613b73565b60200260200101516020015188868151811061101257611012613b73565b60200260200101516040015185611268565b604051635b16ebb760e01b81526001600160a01b03808316600483015291925090831690635b16ebb790602401602060405180830381865afa15801561106c573d5f803e3d5ffd5b505050506040513d601f19601f820116820180604052508101906110909190613bf5565b1561117257806001600160a01b031663f140a35a8685815181106110b6576110b6613b73565b60200260200101518886815181106110d0576110d0613b73565b60200260200101515f01516040518363ffffffff1660e01b815260040161110a9291909182526001600160a01b0316602082015260400190565b602060405180830381865afa158015611125573d5f803e3d5ffd5b505050506040513d601f19601f820116820180604052508101906111499190613bde565b85611155856001613c24565b8151811061116557611165613b73565b6020026020010181815250505b5050600101610f3b565b505092915050565b5f805f836111918161267f565b6111a08d8d8d8d8d8d8d612eb4565b90945092505f6111d28e8e8e7f0000000000000000000000000000000000000000000000000000000000000000611268565b90506111e08e3383886126e3565b6111ec8d3383876126e3565b6040516335313c2160e11b81526001600160a01b038881166004830152821690636a627842906024016020604051808303815f875af1158015611231573d5f803e3d5ffd5b505050506040513d601f19601f820116820180604052508101906112559190613bde565b9250505099509950999650505050505050565b5f7f0000000000000000000000000000000000000000000000000000000000000000816001600160a01b038416156112a057836112a2565b815b90505f806112b08989610e19565b6040516bffffffffffffffffffffffff19606084811b8216602084015283901b16603482015289151560f81b604882015291935091505f906049016040516020818303038152906040528051906020012090506113cc846001600160a01b0316635c60da1b6040518163ffffffff1660e01b8152600401602060405180830381865afa158015611342573d5f803e3d5ffd5b505050506040513d601f19601f820116820180604052508101906113669190613c37565b604051603881018790526f5af43d82803e903d91602b57fd5bf3ff60248201526014810191909152733d602d80600a3d3981f3363d3d373d3d3d363d738152605881018390526037600c820120607882015260556043909101206001600160a01b031690565b9a9950505050505050505050565b806113e48161267f565b6113f985855f8181106106f2576106f2613b73565b5f611405600186613b60565b90505f86868381811061141a5761141a613b73565b90506080020160200160208101906114329190613b87565b6040516370a0823160e01b81526001600160a01b03878116600483015291909116906370a0823190602401602060405180830381865afa158015611478573d5f803e3d5ffd5b505050506040513d601f19601f8201168201806040525081019061149c9190613bde565b90506114f98787808060200260200160405190810160405280939291908181526020015f905b828210156114ee576114df60808302860136819003810190613bc4565b815260200190600101906114c2565b5050505050866127d3565b878188888581811061150d5761150d613b73565b90506080020160200160208101906115259190613b87565b6040516370a0823160e01b81526001600160a01b03898116600483015291909116906370a0823190602401610c54565b5f805f6115628787610e19565b5090505f8061157389898989611268565b6001600160a01b0316630902f1ac6040518163ffffffff1660e01b8152600401606060405180830381865afa1580156115ae573d5f803e3d5ffd5b505050506040513d601f19601f820116820180604052508101906115d29190613c52565b5091509150826001600160a01b0316896001600160a01b0316146115f75780826115fa565b81815b909a909950975050505050505050565b6060816116168161267f565b7f00000000000000000000000000000000000000000000000000000000000000006001600160a01b031686865f81811061165257611652613b73565b6116689260206080909202019081019150613b87565b6001600160a01b03161461168f576040516320db826760e01b815260040160405180910390fd5b6116ea348787808060200260200160405190810160405280939291908181526020015f905b828210156116e0576116d160808302860136819003810190613bc4565b815260200190600101906116b4565b5050505050610ea3565b91508682600184516116fc9190613b60565b8151811061170c5761170c613b73565b60200260200101511015611733576040516342301c2360e01b815260040160405180910390fd5b7f00000000000000000000000000000000000000000000000000000000000000006001600160a01b031663d0e30db0835f8151811061177457611774613b73565b60200260200101516040518263ffffffff1660e01b81526004015f604051808303818588803b1580156117a5575f80fd5b505af11580156117b7573d5f803e3d5ffd5b50505050507f00000000000000000000000000000000000000000000000000000000000000006001600160a01b031663a9059cbb61180088885f81811061071e5761071e613b73565b845f8151811061181257611812613b73565b60200260200101516040518363ffffffff1660e01b815260040161184b9291906001600160a01b03929092168252602082015260400190565b6020604051808303815f875af1158015611867573d5f803e3d5ffd5b505050506040513d601f19601f8201168201806040525081019061188b9190613bf5565b61189757611897613c10565b610e0f828787808060200260200160405190810160405280939291908181526020015f905b82821015610e00576118d960808302860136819003810190613bc4565b815260200190600101906118bc565b5f805f836118f58161267f565b6119248b7f00000000000000000000000000000000000000000000000000000000000000008c8c348d8d612eb4565b90945092505f6119768c7f00000000000000000000000000000000000000000000000000000000000000008d7f0000000000000000000000000000000000000000000000000000000000000000611268565b90506119848c3383886126e3565b7f00000000000000000000000000000000000000000000000000000000000000006001600160a01b031663d0e30db0856040518263ffffffff1660e01b81526004015f604051808303818588803b1580156119dd575f80fd5b505af11580156119ef573d5f803e3d5ffd5b505060405163a9059cbb60e01b81526001600160a01b038581166004830152602482018990527f000000000000000000000000000000000000000000000000000000000000000016935063a9059cbb925060440190506020604051808303815f875af1158015611a61573d5f803e3d5ffd5b505050506040513d601f19601f82011682018060405250810190611a859190613bf5565b611a9157611a91613c10565b6040516335313c2160e11b81526001600160a01b038881166004830152821690636a627842906024016020604051808303815f875af1158015611ad6573d5f803e3d5ffd5b505050506040513d601f19601f82011682018060405250810190611afa9190613bde565b925083341115611b1757611b1733611b128634613b60565b612bdc565b50509750975097945050505050565b606081611b328161267f565b6001600160a01b037f0000000000000000000000000000000000000000000000000000000000000000168686611b69600182613b60565b818110611b7857611b78613b73565b9050608002016020016020810190611b909190613b87565b6001600160a01b031614611bb7576040516320db826760e01b815260040160405180910390fd5b611c08888787808060200260200160405190810160405280939291908181526020015f905b828210156116e057611bf960808302860136819003810190613bc4565b81526020019060010190611bdc565b9150868260018451611c1a9190613b60565b81518110611c2a57611c2a613b73565b60200260200101511015611c51576040516342301c2360e01b815260040160405180910390fd5b611ca486865f818110611c6657611c66613b73565b611c7c9260206080909202019081019150613b87565b33611c9289895f818110610d1457610d14613b73565b855f81518110610da257610da2613b73565b611d00828787808060200260200160405190810160405280939291908181526020015f905b82821015611cf557611ce660808302860136819003810190613bc4565b81526020019060010190611cc9565b505050505030612c6b565b7f00000000000000000000000000000000000000000000000000000000000000006001600160a01b0316632e1a7d4d8360018551611d3e9190613b60565b81518110611d4e57611d4e613b73565b60200260200101516040518263ffffffff1660e01b8152600401611d7491815260200190565b5f604051808303815f87803b158015611d8b575f80fd5b505af1158015611d9d573d5f803e3d5ffd5b50505050611dd1848360018551611db49190613b60565b81518110611dc457611dc4613b73565b6020026020010151612bdc565b509695505050505050565b5f805f846001600160a01b03166379bc57d58989896040518463ffffffff1660e01b8152600401611e0f93929190613c7d565b602060405180830381865afa158015611e2a573d5f803e3d5ffd5b505050506040513d601f19601f82011682018060405250810190611e4e9190613c37565b90506001600160a01b038116611e6a575f809250925050611f12565b5f80611e788a8a8a8a611555565b915091505f836001600160a01b03166318160ddd6040518163ffffffff1660e01b8152600401602060405180830381865afa158015611eb9573d5f803e3d5ffd5b505050506040513d601f19601f82011682018060405250810190611edd9190613bde565b905080611eea8489613ca1565b611ef49190613ccc565b955080611f018389613ca1565b611f0b9190613ccc565b9450505050505b9550959350505050565b606081611f288161267f565b611f79888787808060200260200160405190810160405280939291908181526020015f905b828210156116e057611f6a60808302860136819003810190613bc4565b81526020019060010190611f4d565b9150868260018451611f8b9190613b60565b81518110611f9b57611f9b613b73565b60200260200101511015611fc2576040516342301c2360e01b815260040160405180910390fd5b611fd786865f818110611c6657611c66613b73565b611dd1828787808060200260200160405190810160405280939291908181526020015f905b82821015610e005761201960808302860136819003810190613bc4565b81526020019060010190611ffc565b5f805f80866001600160a01b03166379bc57d58b8b8b6040518463ffffffff1660e01b815260040161205c93929190613c7d565b602060405180830381865afa158015612077573d5f803e3d5ffd5b505050506040513d601f19601f8201168201806040525081019061209b9190613c37565b90505f80806001600160a01b0384161561212357836001600160a01b03166318160ddd6040518163ffffffff1660e01b8152600401602060405180830381865afa1580156120eb573d5f803e3d5ffd5b505050506040513d601f19601f8201168201806040525081019061210f9190613bde565b905061211d8d8d8d8d611555565b90935091505b8215801561212f575081155b15612160578896508795506103e861214f61214a888a613ca1565b613112565b6121599190613b60565b94506121f1565b5f61216c8a858561326a565b90508881116121b4578997509550856121ad84612189848b613ca1565b6121939190613ccc565b8461219e858b613ca1565b6121a89190613ccc565b6132d1565b95506121ef565b5f6121c08a858761326a565b98508997508890506121eb856121d68584613ca1565b6121e09190613ccc565b8561219e868c613ca1565b9650505b505b5050505096509650969350505050565b5f808261220d8161267f565b61223d8a7f00000000000000000000000000000000000000000000000000000000000000008b8b8b8b308b610504565b909350915061224d8a86856132e5565b604051632e1a7d4d60e01b8152600481018390527f00000000000000000000000000000000000000000000000000000000000000006001600160a01b031690632e1a7d4d906024015f604051808303815f87803b1580156122ac575f80fd5b505af11580156122be573d5f803e3d5ffd5b505050506122cc8583612bdc565b5097509795505050505050565b5f806122e88585600186611268565b90505f856001600160a01b031663313ce5676040518163ffffffff1660e01b8152600401602060405180830381865afa158015612327573d5f803e3d5ffd5b505050506040513d601f19601f8201168201806040525081019061234b9190613ceb565b61235690600a613deb565b90505f856001600160a01b031663313ce5676040518163ffffffff1660e01b8152600401602060405180830381865afa158015612395573d5f803e3d5ffd5b505050506040513d601f19601f820116820180604052508101906123b99190613ceb565b6123c490600a613deb565b6040516378a051ad60e11b8152600481018490526001600160a01b03898116602483015291925083915f919086169063f140a35a90604401602060405180830381865afa158015612417573d5f803e3d5ffd5b505050506040513d601f19601f8201168201806040525081019061243b9190613bde565b90505f8061244e8b8b60018c8888612028565b5090925090508561246783670de0b6b3a7640000613ca1565b6124719190613ccc565b91508461248682670de0b6b3a7640000613ca1565b6124909190613ccc565b9050846124a584670de0b6b3a7640000613ca1565b6124af9190613ccc565b9250856124c485670de0b6b3a7640000613ca1565b6124ce9190613ccc565b93508082856124e586670de0b6b3a7640000613ca1565b6124ef9190613ccc565b6124f99190613ca1565b6125039190613ccc565b975061251788670de0b6b3a7640000613c24565b61252985670de0b6b3a7640000613ca1565b6125339190613ccc565b9b9a5050505050505050505050565b5f8161254d8161267f565b61257d897f00000000000000000000000000000000000000000000000000000000000000008a8a8a8a308a610504565b6040516370a0823160e01b81523060048201529093506125f491508a9086906001600160a01b038316906370a0823190602401602060405180830381865afa1580156125cb573d5f803e3d5ffd5b505050506040513d601f19601f820116820180604052508101906125ef9190613bde565b6132e5565b604051632e1a7d4d60e01b8152600481018390527f00000000000000000000000000000000000000000000000000000000000000006001600160a01b031690632e1a7d4d906024015f604051808303815f87803b158015612653575f80fd5b505af1158015612665573d5f803e3d5ffd5b505050506126738483612bdc565b50979650505050505050565b428110156126a057604051630407b05b60e31b815260040160405180910390fd5b50565b6126b18484848460016133c5565b6126dd57604051635274afe760e01b81526001600160a01b038516600482015260240160405180910390fd5b50505050565b5f846001600160a01b03163b116126f8575f80fd5b604080516001600160a01b0385811660248301528481166044830152606480830185905283518084039091018152608490920183526020820180516001600160e01b03166323b872dd60e01b17905291515f9283929088169161275b9190613e1b565b5f604051808303815f865af19150503d805f8114612794576040519150601f19603f3d011682016040523d82523d5f602084013e612799565b606091505b50915091508180156127c35750805115806127c35750808060200190518101906127c39190613bf5565b6127cb575f80fd5b505050505050565b81515f5b818110156126dd575f6128238583815181106127f5576127f5613b73565b60200260200101515f015186848151811061281257612812613b73565b602002602001015160200151610e19565b5090505f6128a686848151811061283c5761283c613b73565b60200260200101515f015187858151811061285957612859613b73565b60200260200101516020015188868151811061287757612877613b73565b60200260200101516040015189878151811061289557612895613b73565b602002602001015160600151611268565b90505f805f61292a8987815181106128c0576128c0613b73565b60200260200101515f01518a88815181106128dd576128dd613b73565b6020026020010151602001518b89815181106128fb576128fb613b73565b6020026020010151604001518c8a8151811061291957612919613b73565b602002602001015160600151611555565b5090508089878151811061294057612940613b73565b6020908102919091010151516040516370a0823160e01b81526001600160a01b038781166004830152909116906370a0823190602401602060405180830381865afa158015612991573d5f803e3d5ffd5b505050506040513d601f19601f820116820180604052508101906129b59190613bde565b6129bf9190613b60565b925050826001600160a01b031663f140a35a838a88815181106129e4576129e4613b73565b60200260200101515f01516040518363ffffffff1660e01b8152600401612a1e9291909182526001600160a01b0316602082015260400190565b602060405180830381865afa158015612a39573d5f803e3d5ffd5b505050506040513d601f19601f82011682018060405250810190612a5d9190613bde565b90505f80856001600160a01b03168a8881518110612a7d57612a7d613b73565b60200260200101515f01516001600160a01b031614612a9d57825f612aa0565b5f835b915091505f60018b51612ab39190613b60565b8810612abf5789612b5b565b612b5b8b612ace8a6001613c24565b81518110612ade57612ade613b73565b60200260200101515f01518c8a6001612af79190613c24565b81518110612b0757612b07613b73565b6020026020010151602001518d8b6001612b219190613c24565b81518110612b3157612b31613b73565b6020026020010151604001518e8c6001612b4b9190613c24565b8151811061289557612895613b73565b604080515f8152602081019182905263022c0d9f60e01b9091529091506001600160a01b0387169063022c0d9f90612b9c9086908690869060248101613e36565b5f604051808303815f87803b158015612bb3575f80fd5b505af1158015612bc5573d5f803e3d5ffd5b5050600190990198506127d7975050505050505050565b604080515f808252602082019092526001600160a01b038416908390604051612c059190613e1b565b5f6040518083038185875af1925050503d805f8114612c3f576040519150601f19603f3d011682016040523d82523d5f602084013e612c44565b606091505b5050905080612c665760405163b12d13eb60e01b815260040160405180910390fd5b505050565b81515f5b81811015612ead575f612c8d8583815181106127f5576127f5613b73565b5090505f86612c9d846001613c24565b81518110612cad57612cad613b73565b602002602001015190505f80836001600160a01b0316888681518110612cd557612cd5613b73565b60200260200101515f01516001600160a01b031614612cf557825f612cf8565b5f835b915091505f60018951612d0b9190613b60565b8610612d175787612da3565b612da389612d26886001613c24565b81518110612d3657612d36613b73565b60200260200101515f01518a886001612d4f9190613c24565b81518110612d5f57612d5f613b73565b6020026020010151602001518b896001612d799190613c24565b81518110612d8957612d89613b73565b6020026020010151604001518c8a6001612b4b9190613c24565b9050612e13898781518110612dba57612dba613b73565b60200260200101515f01518a8881518110612dd757612dd7613b73565b6020026020010151602001518b8981518110612df557612df5613b73565b6020026020010151604001518c8a8151811061289557612895613b73565b6001600160a01b031663022c0d9f8484845f6040519080825280601f01601f191660200182016040528015612e4f576020820181803683370190505b506040518563ffffffff1660e01b8152600401612e6f9493929190613e36565b5f604051808303815f87803b158015612e86575f80fd5b505af1158015612e98573d5f803e3d5ffd5b505060019097019650612c6f95505050505050565b5050505050565b5f8083861015612ed757604051636e35977960e11b815260040160405180910390fd5b82851015612ef85760405163acee051360e01b815260040160405180910390fd5b6040516379bc57d560e01b81525f906001600160a01b037f000000000000000000000000000000000000000000000000000000000000000016906379bc57d590612f4a908d908d908d90600401613c7d565b602060405180830381865afa158015612f65573d5f803e3d5ffd5b505050506040513d601f19601f82011682018060405250810190612f899190613c37565b90506001600160a01b03811661302c576040516301b5fcad60e51b81526001600160a01b037f000000000000000000000000000000000000000000000000000000000000000016906336bf95a090612fe9908d908d908d90600401613c7d565b6020604051808303815f875af1158015613005573d5f803e3d5ffd5b505050506040513d601f19601f820116820180604052508101906130299190613c37565b90505b5f8061305a8c8c8c7f0000000000000000000000000000000000000000000000000000000000000000611555565b91509150815f14801561306b575080155b1561307b57889450879350613103565b5f6130878a848461326a565b90508881116130bc57868110156130b157604051630d32418960e21b815260040160405180910390fd5b899550935083613101565b5f6130c88a848661326a565b90508a8111156130da576130da613c10565b888110156130fb576040516323d9bb0560e21b815260040160405180910390fd5b95508894505b505b50505097509795505050505050565b5f6001821161311f575090565b816001600160801b82106131385760809190911c9060401b5b6801000000000000000082106131535760409190911c9060201b5b640100000000821061316a5760209190911c9060101b5b62010000821061317f5760109190911c9060081b5b61010082106131935760089190911c9060041b5b601082106131a65760049190911c9060021b5b600482106131b25760011b5b600302600190811c908185816131ca576131ca613cb8565b048201901c905060018185816131e2576131e2613cb8565b048201901c905060018185816131fa576131fa613cb8565b048201901c9050600181858161321257613212613cb8565b048201901c9050600181858161322a5761322a613cb8565b048201901c9050600181858161324257613242613cb8565b048201901c905061326181858161325b5761325b613cb8565b04821190565b90039392505050565b5f835f0361328b57604051632ca2f52b60e11b815260040160405180910390fd5b821580613296575081155b156132b45760405163bb55fd2760e01b815260040160405180910390fd5b826132bf8386613ca1565b6132c99190613ccc565b949350505050565b5f8282188284100282185b90505b92915050565b5f836001600160a01b03163b116132fa575f80fd5b604080516001600160a01b038481166024830152604480830185905283518084039091018152606490920183526020820180516001600160e01b031663a9059cbb60e01b17905291515f928392908716916133559190613e1b565b5f604051808303815f865af19150503d805f811461338e576040519150601f19603f3d011682016040523d82523d5f602084013e613393565b606091505b50915091508180156133bd5750805115806133bd5750808060200190518101906133bd9190613bf5565b612ead575f80fd5b6040516323b872dd60e01b5f8181526001600160a01b038781166004528616602452604485905291602083606481808c5af1925060015f51148316613421578383151615613415573d5f823e3d81fd5b5f883b113d1516831692505b604052505f60605295945050505050565b6001600160a01b03811681146126a0575f80fd5b803561345181613432565b919050565b80151581146126a0575f80fd5b5f805f805f805f80610100898b03121561347b575f80fd5b883561348681613432565b9750602089013561349681613432565b965060408901356134a681613456565b9550606089013594506080890135935060a0890135925060c08901356134cb81613432565b8092505060e089013590509295985092959890939650565b5f8083601f8401126134f3575f80fd5b50813567ffffffffffffffff81111561350a575f80fd5b6020830191508360208260071b8501011115610e9c575f80fd5b5f805f805f8060a08789031215613539575f80fd5b8635955060208701359450604087013567ffffffffffffffff81111561355d575f80fd5b61356989828a016134e3565b909550935050606087013561357d81613432565b80925050608087013590509295509295509295565b5f805f805f608086880312156135a6575f80fd5b85359450602086013567ffffffffffffffff8111156135c3575f80fd5b6135cf888289016134e3565b90955093505060408601356135e381613432565b949793965091946060013592915050565b634e487b7160e01b5f52604160045260245ffd5b604051601f8201601f1916810167ffffffffffffffff81118282101715613631576136316135f4565b604052919050565b5f67ffffffffffffffff821115613652576136526135f4565b5060051b60200190565b5f805f805f60808688031215613670575f80fd5b853567ffffffffffffffff80821115613687575f80fd5b818801915088601f83011261369a575f80fd5b813560206136af6136aa83613639565b613608565b82815260059290921b8401810191818101908c8411156136cd575f80fd5b948201945b838610156136eb578535825294820194908201906136d2565b99505089013592505080821115613700575f80fd5b5061370d888289016134e3565b90955093506135e3905060408701613446565b602080825282518282018190525f9190848201906040850190845b818110156137575783518352928401929184019160010161373b565b50909695505050505050565b5f8060408385031215613774575f80fd5b823561377f81613432565b9150602083013561378f81613432565b809150509250929050565b5f608082840312156137aa575f80fd5b6040516080810181811067ffffffffffffffff821117156137cd576137cd6135f4565b60405290508082356137de81613432565b815260208301356137ee81613432565b6020820152604083013561380181613456565b6040820152606083013561381481613432565b6060919091015292915050565b5f8060408385031215613832575f80fd5b8235915060208084013567ffffffffffffffff811115613850575f80fd5b8401601f81018613613860575f80fd5b803561386e6136aa82613639565b8082825260208201915060208360071b85010192508883111561388f575f80fd5b6020840193505b828410156138ba576138a8898561379a565b82528482019150608084019350613896565b80955050505050509250929050565b5f805f805f805f805f6101208a8c0312156138e2575f80fd5b89356138ed81613432565b985060208a01356138fd81613432565b975060408a013561390d81613456565b965060608a0135955060808a0135945060a08a0135935060c08a0135925060e08a013561393981613432565b809250506101008a013590509295985092959850929598565b5f805f8060808587031215613965575f80fd5b843561397081613432565b9350602085013561398081613432565b9250604085013561399081613456565b915060608501356139a081613432565b939692955090935050565b5f805f805f805f60e0888a0312156139c1575f80fd5b87356139cc81613432565b965060208801356139dc81613456565b955060408801359450606088013593506080880135925060a0880135613a0181613432565b8092505060c0880135905092959891949750929550565b5f805f805f60a08688031215613a2c575f80fd5b8535613a3781613432565b94506020860135613a4781613432565b93506040860135613a5781613456565b92506060860135613a6781613432565b949793965091946080013592915050565b5f805f805f8060c08789031215613a8d575f80fd5b8635613a9881613432565b95506020870135613aa881613432565b94506040870135613ab881613456565b93506060870135613ac881613432565b9598949750929560808101359460a0909101359350915050565b5f805f60608486031215613af4575f80fd5b8335613aff81613432565b92506020840135613b0f81613432565b91506040840135613b1f81613432565b809150509250925092565b5f8060408385031215613b3b575f80fd5b505080516020909101519092909150565b634e487b7160e01b5f52601160045260245ffd5b818103818111156132df576132df613b4c565b634e487b7160e01b5f52603260045260245ffd5b5f60208284031215613b97575f80fd5b8135613ba281613432565b9392505050565b5f60208284031215613bb9575f80fd5b8135613ba281613456565b5f60808284031215613bd4575f80fd5b6132dc838361379a565b5f60208284031215613bee575f80fd5b5051919050565b5f60208284031215613c05575f80fd5b8151613ba281613456565b634e487b7160e01b5f52600160045260245ffd5b808201808211156132df576132df613b4c565b5f60208284031215613c47575f80fd5b8151613ba281613432565b5f805f60608486031215613c64575f80fd5b8351925060208401519150604084015190509250925092565b6001600160a01b039384168152919092166020820152901515604082015260600190565b80820281158282048414176132df576132df613b4c565b634e487b7160e01b5f52601260045260245ffd5b5f82613ce657634e487b7160e01b5f52601260045260245ffd5b500490565b5f60208284031215613cfb575f80fd5b815160ff81168114613ba2575f80fd5b600181815b80851115613d4557815f1904821115613d2b57613d2b613b4c565b80851615613d3857918102915b93841c9390800290613d10565b509250929050565b5f82613d5b575060016132df565b81613d6757505f6132df565b8160018114613d7d5760028114613d8757613da3565b60019150506132df565b60ff841115613d9857613d98613b4c565b50506001821b6132df565b5060208310610133831016604e8410600b8410161715613dc6575081810a6132df565b613dd08383613d0b565b805f1904821115613de357613de3613b4c565b029392505050565b5f6132dc60ff841683613d4d565b5f5b83811015613e13578181015183820152602001613dfb565b50505f910152565b5f8251613e2c818460208701613df9565b9190910192915050565b84815283602082015260018060a01b0383166040820152608060608201525f8251806080840152613e6e8160a0850160208701613df9565b601f01601f19169190910160a0019594505050505056fea26469706673582212204566c9556057d9e6a5e23f1a9e8163d065e72a3c5741777a70c87bbf9919908364736f6c63430008180033",
  "linkReferences": {},
  "deployedLinkReferences": {}
}