{
  "_format": "hh-sol-artifact-1",
  "contractName": "Aero",
  "sourceName": "contracts/aero/Aero.sol",
  "abi": [
    {
      "inputs": [],
      "stateMutability": "nonpayable",
      "type": "constructor"
    },
    {
      "inputs": [],
      "name": "ECDSAInvalidSignature",
      "type": "error"
    },
    {
      "inputs": [
        {
          "internalType": "uint256",
          "name": "length",
          "type": "uint256"
        }
      ],
      "name": "ECDSAInvalidSignatureLength",
      "type": "error"
    },
    {
      "inputs": [
        {
          "internalType": "bytes32",
          "name": "s",
          "type": "bytes32"
        }
      ],
      "name": "ECDSAInvalidSignatureS",
      "type": "error"
    },
    {
      "inputs": [
        {
          "internalType": "address",
          "name": "spender",
          "type": "address"
        },
        {
          "internalType": "uint256",
          "name": "allowance",
          "type": "uint256"
        },
        {
          "internalType": "uint256",
          "name": "needed",
          "type": "uint256"
        }
      ],
      "name": "ERC20InsufficientAllowance",
      "type": "error"
    },
    {
      "inputs": [
        {
          "internalType": "address",
          "name": "sender",
          "type": "address"
        },
        {
          "internalType": "uint256",
          "name": "balance",
          "type": "uint256"
        },
        {
          "internalType": "uint256",
          "name": "needed",
          "type": "uint256"
        }
      ],
      "name": "ERC20InsufficientBalance",
      "type": "error"
    },
    {
      "inputs": [
        {
          "internalType": "address",
          "name": "approver",
          "type": "address"
        }
      ],
      "name": "ERC20InvalidApprover",
      "type": "error"
    },
    {
      "inputs": [
        {
          "internalType": "address",
          "name": "receiver",
          "type": "address"
        }
      ],
      "name": "ERC20InvalidReceiver",
      "type": "error"
    },
    {
      "inputs": [
        {
          "internalType": "address",
          "name": "sender",
          "type": "address"
        }
      ],
      "name": "ERC20InvalidSender",
      "type": "error"
    },
    {
      "inputs": [
        {
          "internalType": "address",
          "name": "spender",
          "type": "address"
        }
      ],
      "name": "ERC20InvalidSpender",
      "type": "error"
    },
    {
      "inputs": [
        {
          "internalType": "uint256",
          "name": "deadline",
          "type": "uint256"
        }
      ],
      "name": "ERC2612ExpiredSignature",
      "type": "error"
    },
    {
      "inputs": [
        {
          "internalType": "address",
          "name": "signer",
          "type": "address"
        },
        {
          "internalType": "address",
          "name": "owner",
          "type": "address"
        }
      ],
      "name": "ERC2612InvalidSigner",
      "type": "error"
    },
    {
      "inputs": [
        {
          "internalType": "address",
          "name": "account",
          "type": "address"
        },
        {
          "internalType": "uint256",
          "name": "currentNonce",
          "type": "uint256"
        }
      ],
      "name": "InvalidAccountNonce",
      "type": "error"
    },
    {
      "inputs": [],
      "name": "InvalidShortString",
      "type": "error"
    },
    {
      "inputs": [],
      "name": "NotMinter",
      "type": "error"
    },
    {
      "inputs": [],
      "name": "NotOwner",
      "type": "error"
    },
    {
      "inputs": [
        {
          "internalType": "string",
          "name": "str",
          "type": "string"
        }
      ],
      "name": "StringTooLong",
      "type": "error"
    },
    {
      "anonymous": false,
      "inputs": [
        {
          "indexed": true,
          "internalType": "address",
          "name": "owner",
          "type": "address"
        },
        {
          "indexed": true,
          "internalType": "address",
          "name": "spender",
          "type": "address"
        },
        {
          "indexed": false,
          "internalType": "uint256",
          "name": "value",
          "type": "uint256"
        }
      ],
      "name": "Approval",
      "type": "event"
    },
    {
      "anonymous": false,
      "inputs": [],
      "name": "EIP712DomainChanged",
      "type": "event"
    },
    {
      "anonymous": false,
      "inputs": [
        {
          "indexed": true,
          "internalType": "address",
          "name": "from",
          "type": "address"
        },
        {
          "indexed": true,
          "internalType": "address",
          "name": "to",
          "type": "address"
        },
        {
          "indexed": false,
          "internalType": "uint256",
          "name": "value",
          "type": "uint256"
        }
      ],
      "name": "Transfer",
      "type": "event"
    },
    {
      "inputs": [],
      "name": "DOMAIN_SEPARATOR",
      "outputs": [
        {
          "internalType": "bytes32",
          "name": "",
          "type": "bytes32"
        }
      ],
      "stateMutability": "view",
      "type": "function"
    },
    {
      "inputs": [
        {
          "internalType": "address",
          "name": "owner",
          "type": "address"
        },
        {
          "internalType": "address",
          "name": "spender",
          "type": "address"
        }
      ],
      "name": "allowance",
      "outputs": [
        {
          "internalType": "uint256",
          "name": "",
          "type": "uint256"
        }
      ],
      "stateMutability": "view",
      "type": "function"
    },
    {
      "inputs": [
        {
          "internalType": "address",
          "name": "spender",
          "type": "address"
        },
        {
          "internalType": "uint256",
          "name": "value",
          "type": "uint256"
        }
      ],
      "name": "approve",
      "outputs": [
        {
          "internalType": "bool",
          "name": "",
          "type": "bool"
        }
      ],
      "stateMutability": "nonpayable",
      "type": "function"
    },
    {
      "inputs": [
        {
          "internalType": "address",
          "name": "account",
          "type": "address"
        }
      ],
      "name": "balanceOf",
      "outputs": [
        {
          "internalType": "uint256",
          "name": "",
          "type": "uint256"
        }
      ],
      "stateMutability": "view",
      "type": "function"
    },
    {
      "inputs": [],
      "name": "decimals",
      "outputs": [
        {
          "internalType": "uint8",
          "name": "",
          "type": "uint8"
        }
      ],
      "stateMutability": "view",
      "type": "function"
    },
    {
      "inputs": [],
      "name": "eip712Domain",
      "outputs": [
        {
          "internalType": "bytes1",
          "name": "fields",
          "type": "bytes1"
        },
        {
          "internalType": "string",
          "name": "name",
          "type": "string"
        },
        {
          "internalType": "string",
          "name": "version",
          "type": "string"
        },
        {
          "internalType": "uint256",
          "name": "chainId",
          "type": "uint256"
        },
        {
          "internalType": "address",
          "name": "verifyingContract",
          "type": "address"
        },
        {
          "internalType": "bytes32",
          "name": "salt",
          "type": "bytes32"
        },
        {
          "internalType": "uint256[]",
          "name": "extensions",
          "type": "uint256[]"
        }
      ],
      "stateMutability": "view",
      "type": "function"
    },
    {
      "inputs": [
        {
          "internalType": "address",
          "name": "account",
          "type": "address"
        },
        {
          "internalType": "uint256",
          "name": "amount",
          "type": "uint256"
        }
      ],
      "name": "mint",
      "outputs": [
        {
          "internalType": "bool",
          "name": "",
          "type": "bool"
        }
      ],
      "stateMutability": "nonpayable",
      "type": "function"
    },
    {
      "inputs": [],
      "name": "minter",
      "outputs": [
        {
          "internalType": "address",
          "name": "",
          "type": "address"
        }
      ],
      "stateMutability": "view",
      "type": "function"
    },
    {
      "inputs": [],
      "name": "name",
      "outputs": [
        {
          "internalType": "string",
          "name": "",
          "type": "string"
        }
      ],
      "stateMutability": "view",
      "type": "function"
    },
    {
      "inputs": [
        {
          "internalType": "address",
          "name": "owner",
          "type": "address"
        }
      ],
      "name": "nonces",
      "outputs": [
        {
          "internalType": "uint256",
          "name": "",
          "type": "uint256"
        }
      ],
      "stateMutability": "view",
      "type": "function"
    },
    {
      "inputs": [
        {
          "internalType": "address",
          "name": "owner",
          "type": "address"
        },
        {
          "internalType": "address",
          "name": "spender",
          "type": "address"
        },
        {
          "internalType": "uint256",
          "name": "value",
          "type": "uint256"
        },
        {
          "internalType": "uint256",
          "name": "deadline",
          "type": "uint256"
        },
        {
          "internalType": "uint8",
          "name": "v",
          "type": "uint8"
        },
        {
          "internalType": "bytes32",
          "name": "r",
          "type": "bytes32"
        },
        {
          "internalType": "bytes32",
          "name": "s",
          "type": "bytes32"
        }
      ],
      "name": "permit",
      "outputs": [],
      "stateMutability": "nonpayable",
      "type": "function"
    },
    {
      "inputs": [
        {
          "internalType": "address",
          "name": "_minter",
          "type": "address"
        }
      ],
      "name": "setMinter",
      "outputs": [],
      "stateMutability": "nonpayable",
      "type": "function"
    },
    {
      "inputs": [],
      "name": "symbol",
      "outputs": [
        {
          "internalType": "string",
          "name": "",
          "type": "string"
        }
      ],
      "stateMutability": "view",
      "type": "function"
    },
    {
      "inputs": [],
      "name": "totalSupply",
      "outputs": [
        {
          "internalType": "uint256",
          "name": "",
          "type": "uint256"
        }
      ],
      "stateMutability": "view",
      "type": "function"
    },
    {
      "inputs": [
        {
          "internalType": "address",
          "name": "to",
          "type": "address"
        },
        {
          "internalType": "uint256",
          "name": "value",
          "type": "uint256"
        }
      ],
      "name": "transfer",
      "outputs": [
        {
          "internalType": "bool",
          "name": "",
          "type": "bool"
        }
      ],
      "stateMutability": "nonpayable",
      "type": "function"
    },
    {
      "inputs": [
        {
          "internalType": "address",
          "name": "from",
          "type": "address"
        },
        {
          "internalType": "address",
          "name": "to",
          "type": "address"
        },
        {
          "internalType": "uint256",
          "name": "value",
          "type": "uint256"
        }
      ],
      "name": "transferFrom",
      "outputs": [
        {
          "internalType": "bool",
          "name": "",
          "type": "bool"
        }
      ],
      "stateMutability": "nonpayable",
      "type": "function"
    }
  ],
  "bytecode": "0x61016060405234801562000011575f80fd5b50604051806040016040528060098152602001684165726f64726f6d6560b81b81525080604051806040016040528060018152602001603160f81b815250604051806040016040528060098152602001684165726f64726f6d6560b81b815250604051806040016040528060048152602001634145524f60e01b81525081600390816200009f9190620002b1565b506004620000ae8282620002b1565b50620000c09150839050600562000190565b61012052620000d181600662000190565b61014052815160208084019190912060e052815190820120610100524660a0526200015e60e05161010051604080517f8b73c3c69bb8fe3d512ecc4cf759cc79239f7b179b0ffacaa9a75d522b39400f60208201529081019290925260608201524660808201523060a08201525f9060c00160405160208183030381529060405280519060200120905090565b60805250503060c0525060088054336001600160a01b03199182168117909255600980549091169091179055620003ef565b5f602083511015620001af57620001a783620001c8565b9050620001c2565b81620001bc8482620002b1565b5060ff90505b92915050565b5f80829050601f81511115620001fe578260405163305a27a960e01b8152600401620001f591906200037d565b60405180910390fd5b80516200020b82620003cb565b179392505050565b634e487b7160e01b5f52604160045260245ffd5b600181811c908216806200023c57607f821691505b6020821081036200025b57634e487b7160e01b5f52602260045260245ffd5b50919050565b601f821115620002ac57805f5260205f20601f840160051c81016020851015620002885750805b601f840160051c820191505b81811015620002a9575f815560010162000294565b50505b505050565b81516001600160401b03811115620002cd57620002cd62000213565b620002e581620002de845462000227565b8462000261565b602080601f8311600181146200031b575f8415620003035750858301515b5f19600386901b1c1916600185901b17855562000375565b5f85815260208120601f198616915b828110156200034b578886015182559484019460019091019084016200032a565b50858210156200036957878501515f19600388901b60f8161c191681555b505060018460011b0185555b505050505050565b5f602080835283518060208501525f5b81811015620003ab578581018301518582016040015282016200038d565b505f604082860101526040601f19601f8301168501019250505092915050565b805160208083015191908110156200025b575f1960209190910360031b1b16919050565b60805160a05160c05160e051610100516101205161014051610ff2620004415f395f61082801525f6107fb01525f61076c01525f61074401525f61069f01525f6106c901525f6106f30152610ff25ff3fe608060405234801561000f575f80fd5b50600436106100fb575f3560e01c806370a0823111610093578063a9059cbb11610063578063a9059cbb14610218578063d505accf1461022b578063dd62ed3e14610240578063fca3b5aa14610278575f80fd5b806370a08231146101ba5780637ecebe00146101e257806384b0196e146101f557806395d89b4114610210575f80fd5b806323b872dd116100ce57806323b872dd1461017d578063313ce567146101905780633644e5151461019f57806340c10f19146101a7575f80fd5b806306fdde03146100ff578063075461721461011d578063095ea7b31461014857806318160ddd1461016b575b5f80fd5b61010761028b565b6040516101149190610d6e565b60405180910390f35b600854610130906001600160a01b031681565b6040516001600160a01b039091168152602001610114565b61015b610156366004610da2565b61031b565b6040519015158152602001610114565b6002545b604051908152602001610114565b61015b61018b366004610dca565b610334565b60405160128152602001610114565b61016f610357565b61015b6101b5366004610da2565b610365565b61016f6101c8366004610e03565b6001600160a01b03165f9081526020819052604090205490565b61016f6101f0366004610e03565b6103a5565b6101fd6103c2565b6040516101149796959493929190610e1c565b610107610404565b61015b610226366004610da2565b610413565b61023e610239366004610eb3565b610420565b005b61016f61024e366004610f20565b6001600160a01b039182165f90815260016020908152604080832093909416825291909152205490565b61023e610286366004610e03565b61055b565b60606003805461029a90610f51565b80601f01602080910402602001604051908101604052809291908181526020018280546102c690610f51565b80156103115780601f106102e857610100808354040283529160200191610311565b820191905f5260205f20905b8154815290600101906020018083116102f457829003601f168201915b5050505050905090565b5f336103288185856105a8565b60019150505b92915050565b5f336103418582856105ba565b61034c858585610636565b506001949350505050565b5f610360610693565b905090565b6008545f906001600160a01b0316331461039257604051633e34a41b60e21b815260040160405180910390fd5b61039c83836107bc565b50600192915050565b6001600160a01b0381165f9081526007602052604081205461032e565b5f6060805f805f60606103d36107f4565b6103db610821565b604080515f80825260208201909252600f60f81b9b939a50919850469750309650945092509050565b60606004805461029a90610f51565b5f33610328818585610636565b834211156104495760405163313c898160e11b8152600481018590526024015b60405180910390fd5b5f7f6e71edae12b1b97f4d1f60370fef10105fa2faae0126114a169c64845d6126c98888886104948c6001600160a01b03165f90815260076020526040902080546001810190915590565b6040805160208101969096526001600160a01b0394851690860152929091166060840152608083015260a082015260c0810186905260e0016040516020818303038152906040528051906020012090505f6104ee8261084e565b90505f6104fd8287878761087a565b9050896001600160a01b0316816001600160a01b031614610544576040516325c0072360e11b81526001600160a01b0380831660048301528b166024820152604401610440565b61054f8a8a8a6105a8565b50505050505050505050565b6008546001600160a01b0316331461058657604051633e34a41b60e21b815260040160405180910390fd5b600880546001600160a01b0319166001600160a01b0392909216919091179055565b6105b583838360016108a6565b505050565b6001600160a01b038381165f908152600160209081526040808320938616835292905220545f19811015610630578181101561062257604051637dc7a0d960e11b81526001600160a01b03841660048201526024810182905260448101839052606401610440565b61063084848484035f6108a6565b50505050565b6001600160a01b03831661065f57604051634b637e8f60e11b81525f6004820152602401610440565b6001600160a01b0382166106885760405163ec442f0560e01b81525f6004820152602401610440565b6105b5838383610978565b5f306001600160a01b037f0000000000000000000000000000000000000000000000000000000000000000161480156106eb57507f000000000000000000000000000000000000000000000000000000000000000046145b1561071557507f000000000000000000000000000000000000000000000000000000000000000090565b610360604080517f8b73c3c69bb8fe3d512ecc4cf759cc79239f7b179b0ffacaa9a75d522b39400f60208201527f0000000000000000000000000000000000000000000000000000000000000000918101919091527f000000000000000000000000000000000000000000000000000000000000000060608201524660808201523060a08201525f9060c00160405160208183030381529060405280519060200120905090565b6001600160a01b0382166107e55760405163ec442f0560e01b81525f6004820152602401610440565b6107f05f8383610978565b5050565b60606103607f00000000000000000000000000000000000000000000000000000000000000006005610a9e565b60606103607f00000000000000000000000000000000000000000000000000000000000000006006610a9e565b5f61032e61085a610693565b8360405161190160f01b8152600281019290925260228201526042902090565b5f805f8061088a88888888610b47565b92509250925061089a8282610c0f565b50909695505050505050565b6001600160a01b0384166108cf5760405163e602df0560e01b81525f6004820152602401610440565b6001600160a01b0383166108f857604051634a1406b160e11b81525f6004820152602401610440565b6001600160a01b038085165f908152600160209081526040808320938716835292905220829055801561063057826001600160a01b0316846001600160a01b03167f8c5be1e5ebec7d5bd14f71427d1e84f3dd0314c0f7b2291e5b200ac8c7c3b9258460405161096a91815260200190565b60405180910390a350505050565b6001600160a01b0383166109a2578060025f8282546109979190610f89565b90915550610a129050565b6001600160a01b0383165f90815260208190526040902054818110156109f45760405163391434e360e21b81526001600160a01b03851660048201526024810182905260448101839052606401610440565b6001600160a01b0384165f9081526020819052604090209082900390555b6001600160a01b038216610a2e57600280548290039055610a4c565b6001600160a01b0382165f9081526020819052604090208054820190555b816001600160a01b0316836001600160a01b03167fddf252ad1be2c89b69c2b068fc378daa952ba7f163c4a11628f55a4df523b3ef83604051610a9191815260200190565b60405180910390a3505050565b606060ff8314610ab857610ab183610cc7565b905061032e565b818054610ac490610f51565b80601f0160208091040260200160405190810160405280929190818152602001828054610af090610f51565b8015610b3b5780601f10610b1257610100808354040283529160200191610b3b565b820191905f5260205f20905b815481529060010190602001808311610b1e57829003601f168201915b5050505050905061032e565b5f80807f7fffffffffffffffffffffffffffffff5d576e7357a4501ddfe92f46681b20a0841115610b8057505f91506003905082610c05565b604080515f808252602082018084528a905260ff891692820192909252606081018790526080810186905260019060a0016020604051602081039080840390855afa158015610bd1573d5f803e3d5ffd5b5050604051601f1901519150506001600160a01b038116610bfc57505f925060019150829050610c05565b92505f91508190505b9450945094915050565b5f826003811115610c2257610c22610fa8565b03610c2b575050565b6001826003811115610c3f57610c3f610fa8565b03610c5d5760405163f645eedf60e01b815260040160405180910390fd5b6002826003811115610c7157610c71610fa8565b03610c925760405163fce698f760e01b815260048101829052602401610440565b6003826003811115610ca657610ca6610fa8565b036107f0576040516335e2f38360e21b815260048101829052602401610440565b60605f610cd383610d04565b6040805160208082528183019092529192505f91906020820181803683375050509182525060208101929092525090565b5f60ff8216601f81111561032e57604051632cd44ac360e21b815260040160405180910390fd5b5f81518084525f5b81811015610d4f57602081850181015186830182015201610d33565b505f602082860101526020601f19601f83011685010191505092915050565b602081525f610d806020830184610d2b565b9392505050565b80356001600160a01b0381168114610d9d575f80fd5b919050565b5f8060408385031215610db3575f80fd5b610dbc83610d87565b946020939093013593505050565b5f805f60608486031215610ddc575f80fd5b610de584610d87565b9250610df360208501610d87565b9150604084013590509250925092565b5f60208284031215610e13575f80fd5b610d8082610d87565b60ff60f81b881681525f602060e06020840152610e3c60e084018a610d2b565b8381036040850152610e4e818a610d2b565b606085018990526001600160a01b038816608086015260a0850187905284810360c0860152855180825260208088019350909101905f5b81811015610ea157835183529284019291840191600101610e85565b50909c9b505050505050505050505050565b5f805f805f805f60e0888a031215610ec9575f80fd5b610ed288610d87565b9650610ee060208901610d87565b95506040880135945060608801359350608088013560ff81168114610f03575f80fd5b9699959850939692959460a0840135945060c09093013592915050565b5f8060408385031215610f31575f80fd5b610f3a83610d87565b9150610f4860208401610d87565b90509250929050565b600181811c90821680610f6557607f821691505b602082108103610f8357634e487b7160e01b5f52602260045260245ffd5b50919050565b8082018082111561032e57634e487b7160e01b5f52601160045260245ffd5b634e487b7160e01b5f52602160045260245ffdfea26469706673582212208844bb46445470da26af104b67db76dc0683d0186d68b2aa56c5e7603b10053964736f6c63430008180033",
  "linkReferences": {},
  "deployedLinkReferences": {}
}