{
  "_format": "hh-sol-artifact-1",
  "contractName": "PoolFactory",
  "sourceName": "contracts/aero/factories/PoolFactory.sol",
  "abi": [
    {
      "inputs": [
        {
          "internalType": "address",
          "name": "_implementation",
          "type": "address"
        }
      ],
      "stateMutability": "nonpayable",
      "type": "constructor"
    },
    {
      "inputs": [],
      "name": "FailedDeployment",
      "type": "error"
    },
    {
      "inputs": [],
      "name": "FeeInvalid",
      "type": "error"
    },
    {
      "inputs": [],
      "name": "FeeTooHigh",
      "type": "error"
    },
    {
      "inputs": [
        {
          "internalType": "uint256",
          "name": "balance",
          "type": "uint256"
        },
        {
          "internalType": "uint256",
          "name": "needed",
          "type": "uint256"
        }
      ],
      "name": "InsufficientBalance",
      "type": "error"
    },
    {
      "inputs": [],
      "name": "InvalidPool",
      "type": "error"
    },
    {
      "inputs": [],
      "name": "NotFeeManager",
      "type": "error"
    },
    {
      "inputs": [],
      "name": "NotPauser",
      "type": "error"
    },
    {
      "inputs": [],
      "name": "NotVoter",
      "type": "error"
    },
    {
      "inputs": [],
      "name": "PoolAlreadyExists",
      "type": "error"
    },
    {
      "inputs": [],
      "name": "SameAddress",
      "type": "error"
    },
    {
      "inputs": [],
      "name": "ZeroAddress",
      "type": "error"
    },
    {
      "inputs": [],
      "name": "ZeroFee",
      "type": "error"
    },
    {
      "anonymous": false,
      "inputs": [
        {
          "indexed": true,
          "internalType": "address",
          "name": "token0",
          "type": "address"
        },
        {
          "indexed": true,
          "internalType": "address",
          "name": "token1",
          "type": "address"
        },
        {
          "indexed": true,
          "internalType": "bool",
          "name": "stable",
          "type": "bool"
        },
        {
          "indexed": false,
          "internalType": "address",
          "name": "pool",
          "type": "address"
        },
        {
          "indexed": false,
          "internalType": "uint256",
          "name": "",
          "type": "uint256"
        }
      ],
      "name": "PoolCreated",
      "type": "event"
    },
    {
      "anonymous": false,
      "inputs": [
        {
          "indexed": true,
          "internalType": "address",
          "name": "pool",
          "type": "address"
        },
        {
          "indexed": false,
          "internalType": "uint256",
          "name": "fee",
          "type": "uint256"
        }
      ],
      "name": "SetCustomFee",
      "type": "event"
    },
    {
      "anonymous": false,
      "inputs": [
        {
          "indexed": false,
          "internalType": "address",
          "name": "feeManager",
          "type": "address"
        }
      ],
      "name": "SetFeeManager",
      "type": "event"
    },
    {
      "anonymous": false,
      "inputs": [
        {
          "indexed": false,
          "internalType": "bool",
          "name": "state",
          "type": "bool"
        }
      ],
      "name": "SetPauseState",
      "type": "event"
    },
    {
      "anonymous": false,
      "inputs": [
        {
          "indexed": false,
          "internalType": "address",
          "name": "pauser",
          "type": "address"
        }
      ],
      "name": "SetPauser",
      "type": "event"
    },
    {
      "anonymous": false,
      "inputs": [
        {
          "indexed": false,
          "internalType": "address",
          "name": "voter",
          "type": "address"
        }
      ],
      "name": "SetVoter",
      "type": "event"
    },
    {
      "inputs": [],
      "name": "MAX_FEE",
      "outputs": [
        {
          "internalType": "uint256",
          "name": "",
          "type": "uint256"
        }
      ],
      "stateMutability": "view",
      "type": "function"
    },
    {
      "inputs": [],
      "name": "ZERO_FEE_INDICATOR",
      "outputs": [
        {
          "internalType": "uint256",
          "name": "",
          "type": "uint256"
        }
      ],
      "stateMutability": "view",
      "type": "function"
    },
    {
      "inputs": [
        {
          "internalType": "uint256",
          "name": "",
          "type": "uint256"
        }
      ],
      "name": "allPools",
      "outputs": [
        {
          "internalType": "address",
          "name": "",
          "type": "address"
        }
      ],
      "stateMutability": "view",
      "type": "function"
    },
    {
      "inputs": [],
      "name": "allPoolsLength",
      "outputs": [
        {
          "internalType": "uint256",
          "name": "",
          "type": "uint256"
        }
      ],
      "stateMutability": "view",
      "type": "function"
    },
    {
      "inputs": [
        {
          "internalType": "address",
          "name": "tokenA",
          "type": "address"
        },
        {
          "internalType": "address",
          "name": "tokenB",
          "type": "address"
        },
        {
          "internalType": "bool",
          "name": "stable",
          "type": "bool"
        }
      ],
      "name": "createPool",
      "outputs": [
        {
          "internalType": "address",
          "name": "pool",
          "type": "address"
        }
      ],
      "stateMutability": "nonpayable",
      "type": "function"
    },
    {
      "inputs": [
        {
          "internalType": "address",
          "name": "tokenA",
          "type": "address"
        },
        {
          "internalType": "address",
          "name": "tokenB",
          "type": "address"
        },
        {
          "internalType": "uint24",
          "name": "fee",
          "type": "uint24"
        }
      ],
      "name": "createPool",
      "outputs": [
        {
          "internalType": "address",
          "name": "pool",
          "type": "address"
        }
      ],
      "stateMutability": "nonpayable",
      "type": "function"
    },
    {
      "inputs": [
        {
          "internalType": "address",
          "name": "",
          "type": "address"
        }
      ],
      "name": "customFee",
      "outputs": [
        {
          "internalType": "uint256",
          "name": "",
          "type": "uint256"
        }
      ],
      "stateMutability": "view",
      "type": "function"
    },
    {
      "inputs": [],
      "name": "feeManager",
      "outputs": [
        {
          "internalType": "address",
          "name": "",
          "type": "address"
        }
      ],
      "stateMutability": "view",
      "type": "function"
    },
    {
      "inputs": [
        {
          "internalType": "address",
          "name": "pool",
          "type": "address"
        },
        {
          "internalType": "bool",
          "name": "_stable",
          "type": "bool"
        }
      ],
      "name": "getFee",
      "outputs": [
        {
          "internalType": "uint256",
          "name": "",
          "type": "uint256"
        }
      ],
      "stateMutability": "view",
      "type": "function"
    },
    {
      "inputs": [
        {
          "internalType": "address",
          "name": "tokenA",
          "type": "address"
        },
        {
          "internalType": "address",
          "name": "tokenB",
          "type": "address"
        },
        {
          "internalType": "uint24",
          "name": "fee",
          "type": "uint24"
        }
      ],
      "name": "getPool",
      "outputs": [
        {
          "internalType": "address",
          "name": "",
          "type": "address"
        }
      ],
      "stateMutability": "view",
      "type": "function"
    },
    {
      "inputs": [
        {
          "internalType": "address",
          "name": "tokenA",
          "type": "address"
        },
        {
          "internalType": "address",
          "name": "tokenB",
          "type": "address"
        },
        {
          "internalType": "bool",
          "name": "stable",
          "type": "bool"
        }
      ],
      "name": "getPool",
      "outputs": [
        {
          "internalType": "address",
          "name": "",
          "type": "address"
        }
      ],
      "stateMutability": "view",
      "type": "function"
    },
    {
      "inputs": [],
      "name": "implementation",
      "outputs": [
        {
          "internalType": "address",
          "name": "",
          "type": "address"
        }
      ],
      "stateMutability": "view",
      "type": "function"
    },
    {
      "inputs": [],
      "name": "isPaused",
      "outputs": [
        {
          "internalType": "bool",
          "name": "",
          "type": "bool"
        }
      ],
      "stateMutability": "view",
      "type": "function"
    },
    {
      "inputs": [
        {
          "internalType": "address",
          "name": "pool",
          "type": "address"
        }
      ],
      "name": "isPool",
      "outputs": [
        {
          "internalType": "bool",
          "name": "",
          "type": "bool"
        }
      ],
      "stateMutability": "view",
      "type": "function"
    },
    {
      "inputs": [],
      "name": "pauser",
      "outputs": [
        {
          "internalType": "address",
          "name": "",
          "type": "address"
        }
      ],
      "stateMutability": "view",
      "type": "function"
    },
    {
      "inputs": [
        {
          "internalType": "address",
          "name": "pool",
          "type": "address"
        },
        {
          "internalType": "uint256",
          "name": "fee",
          "type": "uint256"
        }
      ],
      "name": "setCustomFee",
      "outputs": [],
      "stateMutability": "nonpayable",
      "type": "function"
    },
    {
      "inputs": [
        {
          "internalType": "bool",
          "name": "_stable",
          "type": "bool"
        },
        {
          "internalType": "uint256",
          "name": "_fee",
          "type": "uint256"
        }
      ],
      "name": "setFee",
      "outputs": [],
      "stateMutability": "nonpayable",
      "type": "function"
    },
    {
      "inputs": [
        {
          "internalType": "address",
          "name": "_feeManager",
          "type": "address"
        }
      ],
      "name": "setFeeManager",
      "outputs": [],
      "stateMutability": "nonpayable",
      "type": "function"
    },
    {
      "inputs": [
        {
          "internalType": "bool",
          "name": "_state",
          "type": "bool"
        }
      ],
      "name": "setPauseState",
      "outputs": [],
      "stateMutability": "nonpayable",
      "type": "function"
    },
    {
      "inputs": [
        {
          "internalType": "address",
          "name": "_pauser",
          "type": "address"
        }
      ],
      "name": "setPauser",
      "outputs": [],
      "stateMutability": "nonpayable",
      "type": "function"
    },
    {
      "inputs": [
        {
          "internalType": "address",
          "name": "_voter",
          "type": "address"
        }
      ],
      "name": "setVoter",
      "outputs": [],
      "stateMutability": "nonpayable",
      "type": "function"
    },
    {
      "inputs": [],
      "name": "stableFee",
      "outputs": [
        {
          "internalType": "uint256",
          "name": "",
          "type": "uint256"
        }
      ],
      "stateMutability": "view",
      "type": "function"
    },
    {
      "inputs": [],
      "name": "volatileFee",
      "outputs": [
        {
          "internalType": "uint256",
          "name": "",
          "type": "uint256"
        }
      ],
      "stateMutability": "view",
      "type": "function"
    },
    {
      "inputs": [],
      "name": "voter",
      "outputs": [
        {
          "internalType": "address",
          "name": "",
          "type": "address"
        }
      ],
      "stateMutability": "view",
      "type": "function"
    }
  ],
  "bytecode": "0x60a060405234801561000f575f80fd5b50604051610e21380380610e2183398101604081905261002e9161008a565b6001600160a01b031660805260048054336001600160a01b031991821681179092555f80546003805490931684179092556001600160a81b031990911661010090920260ff19169190911790556005600155601e6002556100b7565b5f6020828403121561009a575f80fd5b81516001600160a01b03811681146100b0575f80fd5b9392505050565b608051610d4b6100d65f395f818161028301526105f60152610d4b5ff3fe608060405234801561000f575f80fd5b5060043610610153575f3560e01c80635c60da1b116100bf578063cc56b2c511610079578063cc56b2c514610327578063cdb88ad11461033a578063d0fb02031461034d578063d49466a814610360578063e1f76b4414610373578063efde4e6414610386575f80fd5b80635c60da1b1461027e57806379bc57d5146102a55780639fd0506d146102e8578063a1671295146102ff578063b187bd2614610312578063bc063e1a1461031e575f80fd5b806346c96aac1161011057806346c96aac146101e2578063472d35b9146101f55780634bc2a657146102085780634d419abc1461021b5780635084ed031461023a5780635b16ebb714610243575f80fd5b80631698ee82146101575780632d88af4a1461018757806336bf95a01461019c57806338c55d46146101af57806340bbd775146101c657806341d1de97146101cf575b5f80fd5b61016a610165366004610bbf565b61038e565b6040516001600160a01b0390911681526020015b60405180910390f35b61019a610195366004610c0a565b61041e565b005b61016a6101aa366004610c32565b6104d0565b6101b86101a481565b60405190815260200161017e565b6101b860015481565b61016a6101dd366004610c72565b610785565b60045461016a906001600160a01b031681565b61019a610203366004610c0a565b6107ad565b61019a610216366004610c0a565b61084d565b6101b8610229366004610c0a565b60086020525f908152604090205481565b6101b860025481565b61026e610251366004610c0a565b6001600160a01b03165f9081526007602052604090205460ff1690565b604051901515815260200161017e565b61016a7f000000000000000000000000000000000000000000000000000000000000000081565b61016a6102b3366004610c32565b6001600160a01b039283165f908152600560209081526040808320948616835293815283822092151582529190915220541690565b5f5461016a9061010090046001600160a01b031681565b61016a61030d366004610bbf565b6108c6565b5f5461026e9060ff1681565b6101b861012c81565b6101b8610335366004610c89565b61090b565b61019a610348366004610cba565b610958565b60035461016a906001600160a01b031681565b61019a61036e366004610cd3565b6109c7565b61019a610381366004610cfb565b610ab2565b6006546101b8565b5f60018262ffffff1611610412578162ffffff166001146103dd576001600160a01b038085165f9081526005602090815260408083208785168452825280832083805290915290205416610414565b6001600160a01b038085165f908152600560209081526040808320878516845282528083206001845290915290205416610414565b5f5b90505b9392505050565b5f5461010090046001600160a01b0316331461044d5760405163492f678160e01b815260040160405180910390fd5b6001600160a01b0381166104745760405163d92e233d60e01b815260040160405180910390fd5b5f8054610100600160a81b0319166101006001600160a01b038416908102919091179091556040519081527fe02efb9e8f0fc21546730ab32d594f62d586e1bbb15bb5045edd0b1878a77b35906020015b60405180910390a150565b5f826001600160a01b0316846001600160a01b0316036105035760405163367558c360e01b815260040160405180910390fd5b5f80846001600160a01b0316866001600160a01b031610610525578486610528565b85855b90925090506001600160a01b0382166105545760405163d92e233d60e01b815260040160405180910390fd5b6001600160a01b038281165f90815260056020908152604080832085851684528252808320881515845290915290205416156105a357604051630188c99160e11b815260040160405180910390fd5b6040516bffffffffffffffffffffffff19606084811b8216602084015283901b16603482015284151560f81b60488201525f9060490160405160208183030381529060405280519060200120905061061b7f000000000000000000000000000000000000000000000000000000000000000082610b32565b604051631c9776b560e31b81526001600160a01b038581166004830152848116602483015287151560448301529195509085169063e4bbb5a8906064015f604051808303815f87803b15801561066f575f80fd5b505af1158015610681573d5f803e3d5ffd5b505050506001600160a01b038381165f8181526005602081815260408084208887168086529083528185208c15158087529084528286208054988d166001600160a01b0319998a16811790915582875294845282862087875284528286208187528452828620805489168617905560068054600181810183557ff652222313e28459528d920b65115c16c04f3efc82aaedc97be59f3f377c0d3f9091018054909a1687179099558587526007855295839020805460ff191690981790975593548151938452918301919091529192917f2128d88d14c80cb081c1252a5acff7a264671bf199ce226b53788fb26065005e910160405180910390a45050509392505050565b60068181548110610794575f80fd5b5f918252602090912001546001600160a01b0316905081565b6003546001600160a01b031633146107d85760405163f5d267eb60e01b815260040160405180910390fd5b6001600160a01b0381166107ff5760405163d92e233d60e01b815260040160405180910390fd5b600380546001600160a01b0319166001600160a01b0383169081179091556040519081527f5d0517e3a4eabea892d9750138cd21d4a6cf3b935b43d0598df7055f463819b2906020016104c5565b6004546001600160a01b031633146108785760405163c18384c160e01b815260040160405180910390fd5b600480546001600160a01b0319166001600160a01b0383169081179091556040519081527fc6ff127433b785c51da9ae4088ee184c909b1a55b9afd82ae6c64224d3bc15d2906020016104c5565b5f60018262ffffff1611156108ee576040516352dadcf960e01b815260040160405180910390fd5b600162ffffff8316146109028585836104d0565b95945050505050565b6001600160a01b0382165f908152600860205260408120546101a4811461094e57805f03610948578261094057600254610950565b600154610950565b80610950565b5f5b949350505050565b5f5461010090046001600160a01b031633146109875760405163492f678160e01b815260040160405180910390fd5b5f805460ff19168215159081179091556040519081527f0d76538efc408318a051137c2720a9e82902acdbd46b802d488b74ca3a09a116906020016104c5565b6003546001600160a01b031633146109f25760405163f5d267eb60e01b815260040160405180910390fd5b61012c81118015610a0557506101a48114155b15610a235760405163cd4e616760e01b815260040160405180910390fd5b6001600160a01b0382165f9081526007602052604090205460ff16610a5a5760405162820f3560e61b815260040160405180910390fd5b6001600160a01b0382165f8181526008602052604090819020839055517fae468ce586f9a87660fdffc1448cee942042c16ae2f02046b134b5224f31936b90610aa69084815260200190565b60405180910390a25050565b6003546001600160a01b03163314610add5760405163f5d267eb60e01b815260040160405180910390fd5b61012c811115610b005760405163cd4e616760e01b815260040160405180910390fd5b805f03610b205760405163af13986d60e01b815260040160405180910390fd5b8115610b2c5760015550565b60025550565b5f61041783838380763d602d80600a3d3981f3363d3d373d3d3d363d730000008460601b60e81c175f526e5af43d82803e903d91602b57fd5bf38460781b17602052826037600984f590506001600160a01b0381166104175760405163b06ebf3d60e01b815260040160405180910390fd5b80356001600160a01b0381168114610bba575f80fd5b919050565b5f805f60608486031215610bd1575f80fd5b610bda84610ba4565b9250610be860208501610ba4565b9150604084013562ffffff81168114610bff575f80fd5b809150509250925092565b5f60208284031215610c1a575f80fd5b61041782610ba4565b80358015158114610bba575f80fd5b5f805f60608486031215610c44575f80fd5b610c4d84610ba4565b9250610c5b60208501610ba4565b9150610c6960408501610c23565b90509250925092565b5f60208284031215610c82575f80fd5b5035919050565b5f8060408385031215610c9a575f80fd5b610ca383610ba4565b9150610cb160208401610c23565b90509250929050565b5f60208284031215610cca575f80fd5b61041782610c23565b5f8060408385031215610ce4575f80fd5b610ced83610ba4565b946020939093013593505050565b5f8060408385031215610d0c575f80fd5b610ced83610c2356fea26469706673582212201a64d4cf90911e49db5d9a2ff4665937d8ce53c04136438d080609d565814b2364736f6c63430008180033",
  "linkReferences": {},
  "deployedLinkReferences": {}
}